:020000040800F2
:1000000030050020010100087F1700080D160008C8
:100010007D170008C50600081D1D0008000000002F
:10002000000000000000000000000000A31700080E
:10003000C706000800000000A1170008A517000867
:100040001B0100081B0100081B0100081B01000820
:100050001B0100081B0100081B0100081B01000810
:100060001B0100081B0100081B0100081B01000800
:100070001B0100081B0100081B0100081B010008F0
:100080001B0100081B0100081B0100081B010008E0
:100090001B0100081B0100081B0100081B010008D0
:1000A0001B0100081B0100081B0100081B010008C0
:1000B0001B0100081B0100081B0100081B010008B0
:1000C0001B0100081B0100081B0100081B010008A0
:1000D0001B0100081B010008111D00081B0100087E
:1000E0001B0100081B0100081B010008DFF80CD0F1
:1000F00000F0D6FA00480047391E000830050020FD
:100100000648804706480047FEE7FEE7FEE7FEE7B1
:10011000FEE7FEE7FEE7FEE7FEE7FEE70118000860
:10012000ED000008202A04DB203A21FA02F0002129
:10013000704721FA02F3D040C2F1200291400843F7
:1001400019467047D2B201E000F8012B491EFBD2DC
:1001500070470022F6E710B513460A4604461946D2
:10016000FFF7F0FF204610BD2DE9FE4F804681EAE3
:100170000300C00F0C46009021F0004123F0004521
:10018000B8EB0200A94105D24046214690461C46E4
:100190000B46024623F00040104347D0270DC7F31B
:1001A0000A00C3F30A510290401A019040286BDA0A
:1001B000C3F3130040F4801B0098924620B1002343
:1001C000D2EB030A63EB0B0B01985946C0F14002D6
:1001D000504600F0B0F906460D4650465946019A81
:1001E00000F0B8F910EB08006141002487EA1152D1
:1001F00084EAE7731A4340D0009A62B3019A012A55
:100200004FEA075215DC001B61EB02014FF0004280
:1002100002EA0752CDE90042001C41F58011324646
:100220002B4600F0EFF903B0BDE8F08F40462146C1
:10023000F9E7001B61EB0201001C41F58013001877
:100240005B412018A2F5001747EB030140EAD57087
:10025000B6196D4111E06D084FEA360645EAC075E2
:100260004FEA0752001B61EB0201001C41F58011AF
:1002700049084FEA30000019514132462B4603B07D
:10028000BDE8F04F00F0AFB9009801224000002314
:10029000D0EB020263EBE073009821464FEAE07472
:1002A000B8EB000061EB0401E9E783F000435BE792
:1002B00081F0004158E72DE9FE4F81EA030404F084
:1002C000004421F0004100944FF0000B23F0004364
:1002D00050EA01045ED052EA03045BD0C3F30A542F
:1002E000C1F30A552C44A4F2F3340194A0FB025448
:1002F000C1F3130141F48011C3F3130343F48013DA
:1003000001FB024400FB034E840A970A44EA81542D
:1003100047EA8357A4FB076802958D0A05FB07850A
:100320004FEA932C04FB0C542705029D4FEA065814
:1003300047EA1637B5EB08056EEB070C870E920EF1
:1003400047EA811742EA8312A7FB0201B6EB0B01D1
:1003500064EB00042B0D43EA0C335E1844EB1C5095
:10036000DA465146E7FB0201C5F313044FEA0B33AB
:1003700043EA14534FEA0432019C43EA0603A4F112
:100380000C040294009CCDE900B400F03BF903B0EA
:10039000BDE8F08F00200146F9E72DE9F04D81EA34
:1003A000030404F0004B21F0004514464FF0000A0E
:1003B00023F0004150EA050220D054EA01021DD08A
:1003C000C5F30A570246C5F31303C1F31300C1F383
:1003D0000A5640F4801543F48013A7EB0608101B5F
:1003E000D64608F2FD3873EB050002D308F1010888
:1003F00001E092185B41B8F1000F03DA00200146DA
:10040000BDE8F08D00204FF48011064684460EE0D2
:10041000171B73EB050705D3121B63EB050306439C
:100420004CEA010C49084FEA300092185B4150EA4F
:100430000107EDD152EA030012D082EA040083EAF8
:100440000501084305D0101BAB4106D20122002351
:1004500006E000224FF0004302E06FF0010253106B
:100460001AEB06004CEB085110EB0A0041EB0B01B4
:10047000BDE8F04D00F0B7B80EB5C10F80EAE070EE
:100480000844CA07002140F233438DE80E000A46B3
:100490000B4600F0B7F803B000BD70B5C1F30A52C7
:1004A00001F000450024C1F3130140F2FF3341F491
:1004B00080119A4201DA002070BD40F233439A4223
:1004C000A2F2334203DC5242FFF72CFE00E09040E0
:1004D0002C43F1D0404270BD00F0004230F00040AB
:1004E0000AD0C10D01F56071C0F3160042EA015156
:1004F000C20840071143704700200146704701F0D1
:10050000004330B421F0004150EA010206D00A0D48
:10051000A2F56072C1F31301002A02DC30BC002096
:100520007047440F44EAC104C100E01830BC00EB3E
:10053000C25000F021B8202A04DB203A00FA02F170
:10054000002070479140C2F1200320FA03F31943C1
:1005500090407047202A06DBCB17203A41FA02F080
:1005600043EAE07306E041FA02F3D040C2F1200210
:1005700091400843194670470029A8BF7047401CA6
:10058000490008BF20F00100704710B4B0FA80FCA9
:1005900000FA0CF050EA010404BF10BC704749B1E6
:1005A000CCF1200421FA04F411FA0CF118BF012156
:1005B00021430843A3EB0C01CB1D4FEA00614FEA36
:1005C000102042BF002010BC704700EBC350104405
:1005D0000029A4BF10BC7047401C490008BF20F090
:1005E000010010BC704710B5141E73F1000408DA46
:1005F000401C41F1000192185B411A4301D120F0E7
:10060000010010BD2DE9F04D92469B4611B1B1FAA3
:1006100081F202E0B0FA80F220329046FFF78BFFC1
:1006200004460F4640EA0A0041EA0B0153465A4687
:10063000084313D0114653EA010019D0C8F1400213
:100640005046FFF76FFD05460E4650465946424656
:10065000FFF771FF084305D0012004E0204639462A
:10066000BDE8F08D0020054346EAE0762C43374391
:100670000A986305E40AA0EB08000022FD0A44EA98
:1006800047540A3002D500200146E9E70105101958
:100690006941DDE9084500196941BDE8F04DA2E76F
:1006A000064C074D06E0E06840F0010394E80700BF
:1006B00098471034AC42F6D3FFF71CFD101F00081A
:1006C000301F0008FEE7704710B590F82110002495
:1006D000022903D00421816301243DE001680A68F6
:1006E00022F00E020A6001680A6822F001020A6024
:1006F0001A4A0168914201D1012121E0174A1432BE
:10070000914201D110211BE0144A2832914201D1BB
:10071000891515E0114A3C32914201D189140FE04C
:100720000E4A5032914202D14FF4803108E00B4A18
:100730006432914202D14FF4801101E04FF0807198
:10074000064A083A5160012180F82110002180F802
:100750002010416B01B18847204610BD08000240BF
:1007600070B5044600F0F6F80546601C02D0044857
:100770000078044400F0EEF8401BA042FAD370BDAC
:10078000600000202DE9F84FDFF890A100220AF167
:10079000040B144601274FF00F090BF1040E00BFA4
:1007A0000B6807FA04F52B40AB4274D1DFF870C137
:1007B0004E68A6EB0C0866452BD00DDC032E34D01A
:1007C00005DC36B3012E19D0022E2FD11BE0112EDD
:1007D00016D0122E2AD119E0B8F5881F19D006DCE0
:1007E000B8F5803F15D0B8F5801F1FD111E0B8F5DE
:1007F000001F0ED0B8F5041F18D10AE0CA6815E032
:10080000CA68121D12E0CA6808320FE0CA680C32CA
:100810000CE08A682AB1012A4FF0080203D0456132
:1008200004E0042202E0056100E00022FF2B01D871
:10083000064601E000F104064FEA840501D9A5F15E
:100840002005D6F800C009FA05F82CEA080C02FACF
:1008500005F54CEA050CC6F800C04D68ED0057D50B
:10086000304DAE6946F00106AE61AD6924F0030675
:1008700005F0010500952C4D06EB050CDCF8085041
:10088000A6074FEA167809FA08F6B543274EB04294
:1008900002D1002610E03BE0254EB04201D10126F6
:1008A0000AE0244EB04201D1022605E0224EB042B9
:1008B00001D1032600E0042606FA08F62E43CCF800
:1008C00008604D68DAF80060ED03554601D51E4317
:1008D00000E09E432E604D68DBF80060AD035D468E
:1008E00001D51E4300E09E432E604D68DEF8006097
:1008F000ED02754601D51E4300E09E432E604D6813
:10090000AD020E4D2E6801D51E4300E09E432E60C1
:10091000641C102CFFF444AFBDE8F88F00040140C4
:1009200000001110001002400000014000080140CA
:10093000000C014000100140001401400C04014073
:10094000C2684A40C26070470AB101617047090439
:10095000FBE700000148806870470000600000204D
:10096000024881680278114481607047600000206D
:10097000074810B5016841F010010160032000F044
:1009800073F8002000F006F800F024F8002010BDF5
:100990000020024070B50D4D04464FF47A7128785E
:1009A000B1FBF0F00A490968B1FBF0F000F0FCFA85
:1009B00048B9102C07D200222146501E00F034F80E
:1009C00000206C6070BD012070BD00006000002040
:1009D0006C0000200C4808B5816941F0010181617B
:1009E000816901F001010091C16941F08051C1614B
:1009F000C06900F0805000900448416821F0E06137
:100A000041F00071416008BD00100240000001404B
:100A100000F01F02012191404009800000F1E02018
:100A2000C0F8001170470000F0B40E4B1B680C4674
:100A3000C3F30223C3F10705042D00D90425191DB2
:100A4000072901D2002300E0DB1E012606FA05F18A
:100A5000491E214099409E40761E16403143F0BC0D
:100A600000F08EBE0CED00E0064900F007020868B9
:100A70004FF6FF03184040EA0220034A1043086083
:100A8000704700000CED00E00000FA052DE9F0478A
:100A9000DFF8548105460E46D8F8000000F0070044
:100AA000B0420CD2D8F8001021F007013143C8F849
:100AB0000010D8F8000000F00700B0426FD128689D
:100AC0004A4C810712D5400703D5606840F4E060C6
:100AD00060602878000703D5606840F4605060606B
:100AE0006068A96820F0F000084360602878C007BB
:100AF00044D06868012816D02168022816D08907DA
:100B000000294CDA616821F0030101436160FFF7BD
:100B100021FF6968074641F2883001290ED0022979
:100B2000814618D026E021688903E9E78901E7E7D3
:100B3000FFF710FFC11B494501D918E081466068E5
:100B4000C0F381000128F3D118E000BFFFF702FFD6
:100B5000C11B49450BD86068C0F381000228F5D15C
:100B60000CE000BFFFF7F6FEC11B494502D9032088
:100B7000BDE8F087606810F00C0FF3D1D8F80010D2
:100B8000404601F00701B1420BD9016821F007018D
:100B900031430160006800F00700B04201D001203D
:100BA000E6E72878400705D56068E96820F4E0604A
:100BB000084360602878000706D56068296920F43A
:100BC000605040EAC100606000F036F86168084A91
:100BD000C1F30311515CC840064908600020FFF7CB
:100BE000D9FE0020C4E700000020024000100240AF
:100BF000F81E00086C000020044805490068496898
:100C0000044AC1F30221515CC84070476C000020C7
:100C100000100240081F00080448054900684968A0
:100C2000044AC1F3C221515CC84070476C000020E7
:100C300000100240081F000812A185B00FC98DE8FE
:100C40000F0014A0144A006804905168134801F082
:100C50000C03042B10D0082B0ED1C1F38343C9031E
:100C60001DF803000AD5516804AAC1F34041515C44
:100C70000A4A5043B0FBF1F005B0704708494843B9
:100C8000FAE7000002030405060708090A0B0C0D29
:100C90000E0F1010010200000010024000127A0036
:100CA00000093D002DE9F84F04460078B94DC00712
:100CB00048D06868C0F38100012807D06868C0F395
:100CC0008100022809D16868C00306D5286880031E
:100CD00038D5606800286FD034E06068B0F5803F98
:100CE0000BD010B1B0F5A02F11D0286820F48030BF
:100CF0002860286820F4802002E0286840F48030D2
:100D00002860606888B1FFF725FE064609E028687C
:100D100040F480202860F0E7FFF71CFE801B642869
:100D200075D828688003F7D50CE0FFF713FE064658
:100D300005E000BFFFF70EFE801B6428F0D828688E
:100D40008003F7D42078944E80074FF001094FF0CC
:100D500000083BD5686810F00C0F07D06868C0F336
:100D60008100022809D16868C00306D4286880077A
:100D700014D5206901281FD110E02069B0B1C6F850
:100D80000090FFF7E7FD074605E000BFFFF7E2FD33
:100D9000C01B0228C4D828688007F7D52868616975
:100DA00020F0F80040EAC10028600FE0C6F800809B
:100DB000FFF7D0FD074606E0E9E000BFFFF7CAFDF8
:100DC000C01B022823D828688007F7D420780007A2
:100DD0002CD57248A169D9B1C0F80090FFF7BAFDCF
:100DE000074604E0FFF7B6FDC01B02280FD8686A6B
:100DF0008007F7D56A484FF4FA510068B0FBF1F06C
:100E0000009000BF0098411E0091FAD20EE080E0F1
:100E1000C0F80080FFF79EFD074604E0FFF79AFD4B
:100E2000C01B022875D8686A8007F7D4207840076D
:100E300060D5E8690027C00008D4E86940F0805018
:100E4000E861E869012700F080500090554801688A
:100E5000C90513D40168834641F480710160FFF72E
:100E600079FD824606E000BFFFF774FDA0EB0A00A3
:100E700064284ED8DBF80000C005F5D5E0680128ED
:100E80000AD008B1052813D0286A20F00100286292
:100E9000286A20F0040002E0286A40F0010028627D
:100EA000E06841F2883B98B1FFF754FD82460BE0C1
:100EB000286A40F004002862EEE700BFFFF74AFD11
:100EC000A0EB0A0159455AD8286A8007F6D50CE0EC
:100ED000FFF740FD824605E0FFF73CFDA0EB0A016D
:100EE00059454CD8286A8007F6D41FB1E86920F02C
:100EF0008050E861E06988B36968C1F38101022923
:100F000045D00228C6F8608004D0FFF723FD0446D0
:100F100038E034E0FFF71EFD074604E0FFF71AFD56
:100F2000C01B02282BD828688001F7D4206AB0F5AE
:100F3000803F05D16868A16820F4003008436860EC
:100F4000D4E908010843696821F474110843686012
:100F5000C6F86090FFF7FEFC044606E015E000BF0F
:100F6000FFF7F8FC001B022809D828688001F7D594
:100F70000BE000BFFFF7EEFC001B022802D90320A4
:100F8000BDE8F88F28688001F4D40020F8E701203C
:100F9000F6E7000000100240000042428004424296
:100FA0006C0000200070004010B5401EB0F1807F42
:100FB00001D3012010BD4FF0E02460610F216017C4
:100FC00000F0DEFB0020A06107202061002010BDA2
:100FD00030B590F83C20012A20D0012280F83C2036
:100FE000022380F83D3003685C6824F070045C6084
:100FF00003685C680D682C435C6003689C6824F09F
:1010000080049C6003689C6849680C439C6080F87D
:101010003D20002180F83C10084630BD022030BD44
:1010200010B5040003D094F83D0010B107E0012092
:1010300010BD002084F83C00204600F00DF802208E
:1010400084F83D00211D206800F0FEFB012084F89B
:101050003D00002010BD000008B500680649884228
:1010600008D10648C16941F00201C161C06900F0C0
:101070000200009008BD0000000400400010024083
:1010800070B5044690F83C00012817D0012584F87B
:101090003C50022084F83D002068826822F07702EC
:1010A00022F47F4282600868502837D00DDC202867
:1010B00059D005DC88B3102841D151E0022070BD21
:1010C000302853D040283AD13FE060282ED07028F5
:1010D0000BD0B0F5805F03D0B0F5005F2FD110E0EA
:1010E0002068816821F0070115E0CB68D1E9012172
:1010F000206800F0EAFB2168886840F0770088608B
:101100001DE0CB68D1E90121206800F0DEFB2068FA
:10111000816841F48041816011E01EE0CA6849683D
:10112000206800F087FC5021206806E0CA68496802
:10113000206800F090FC6021206800F0D0FB84F86B
:101140003D50002084F83C0070BDCA6849682068A2
:1011500000F070FC40212068EFE700212068ECE7F8
:1011600010212068E9E720212068E6E73021206887
:10117000E3E72DE9F0410D46040003D094F83D006B
:1011800018B108E00120BDE8F081002084F83C009F
:10119000204600F039F8022084F83D00206881687C
:1011A00021F007018160211D206800F04DFB2268BD
:1011B00090689169166A2B68AF69034340F2033067
:1011C000814341EA0721A868EF6908434FF6FC41D3
:1011D0008843E96840EA0720014328692F6A000133
:1011E00040EA0730084369686D6926F0AA0646EAB6
:1011F00005152943936022689061206801620120EF
:1012000084F83D000020BEE700B585B000210091C4
:101210000191029103910068B0F1804F16D10C4802
:10122000C16941F00101C161C16901F0010104918D
:10123000816941F0040181618069694600F0040020
:101240000490032000900348FFF79CFA05B000BD0E
:10125000001002400008014010B50446006891B13A
:10126000042904D00122002100F024FB206801227F
:101270005FF0040100F01EFB2068016841F00101ED
:101280000160002010BD01220021F3E700B585B008
:101290000021009101910291039100680B4988425D
:1012A00011D10B48816941F004018161806969466F
:1012B00000F0040004908020009002200190039030
:1012C0000448FFF75FFA05B000BD000000040040CD
:1012D000001002400008014070B5044690F83C0040
:1012E0000D4601280DD0012684F83C60022084F8C8
:1012F0003D0042B1042A18D0082A2AD00C2A4DD128
:1013000039E0022070BD206800F0F2FA206881699F
:1013100041F0080181612068816921F00401816147
:10132000206881692A69114311E0206800F008FBF8
:101330002068816941F4006181612068816921F43C
:1013400080618161206881692A6941EA02218161A5
:1013500024E0206800F020FB2068C16941F008010A
:10136000C1612068C16921F00401C1612068C169BF
:101370002A69114311E0206800F03AFB2068C16936
:1013800041F40061C1612068C16921F48061C161DB
:101390002068C1692A6941EA0221C16184F83D607F
:1013A000002084F83C0070BD10B5040003D094F810
:1013B0003D0010B107E0012010BD002084F83C0082
:1013C000204600F00CF8022084F83D00211D206822
:1013D00000F03AFA012084F83D00002010BD70476B
:1013E00010B504460068012200F064FA074920683D
:1013F000884203D1416C41F4004141642068016896
:1014000041F001010160002010BD0000002C0140EE
:101410007047000070B5026804461068D1685369CF
:1014200010F00F0F50D003F0010501F49076354312
:101430005DD0C20705D0CA0503D5E26B42F00102B8
:10144000E263420705D5DA0703D0E26B42F00202FD
:10145000E263820705D5DA0703D0E26B42F00402AB
:10146000E263020705D5DA0703D0E26B42F0080217
:10147000E263E26B002A33D0800604D5880602D5E9
:10148000204600F010FB20684069E16BC0F380103B
:10149000090700D428B3204600F0F7FA2068416914
:1014A00049061AD5416921F040014161606BA0B144
:1014B0001B494163606BFFF707F9002810D0606B90
:1014C000416BBDE870400847830610D58B060ED5EA
:1014D0002046BDE8704000F0E6BA2046FFF798FFCE
:1014E00070BD2046FFF794FF0020E06370BD030647
:1014F00006D50B0604D52046BDE8704000F0D6BBEB
:101500004006F3D54806F1D5D168204621F04001C8
:10151000D160202184F8391000F077F870BD000008
:101520007B1A000870B5040004D094F83900002537
:1015300010B106E0012070BD84F83850204600F05C
:1015400023F8242084F839002068C16821F4005170
:10155000C160204600F0F2FA2068016921F4904150
:1015600001612068416921F02A0141612068C16858
:1015700041F40051C160E563202084F8390084F80B
:101580003A00002070BD000030B585B00024009402
:101590000194029403940068184988422BD118489A
:1015A000C16941F40031C161C16901F400310491A4
:1015B000816941F0040181618069124D00F00400ED
:1015C00004900420009002200190032003906946BB
:1015D0002846FFF7D7F80820CDE9000469462846D9
:1015E0000294FFF7CFF8002211462620FFF71CFADD
:1015F0002620FFF70DFA05B030BD00000044004082
:10160000001002400008014070477047FEE70000EC
:101610002DE9F04186B00024204800940194029402
:101620000394816941F010018161816901F0100129
:101630000491816941F020018161816901F02001FB
:101640000491816941F0040181618069012200F007
:101650000400134F5503049029463846FFF774F9E8
:10166000DFF84080002270214046FFF76DF90095B9
:10167000022601250396CDE9015469463846FFF755
:1016800081F87020CDE90005CDE902466946404663
:10169000FFF778F806B0BDE8F081000000100240C6
:1016A000001001400008014010B58CB024216846AC
:1016B000FEF74FFD0024124809944FF080410A9430
:1016C000C0E900144FF6FF71C0E902410461846172
:1016D0000320CDE900040120CDE902040494CDE902
:1016E00005400794694606480894FFF742FD0994AF
:1016F00009A903480A94FFF76BFC0CB010BD000069
:101700007000002010B58EB000240794089409944E
:101710000A940B941C2168460C94FEF71AFD164897
:101720001449C0E900144FF6FF71C0E90241046199
:101730008461FFF775FC4FF48050079007A90E48AD
:10174000FFF79EFC0C48FFF72FFE0B940BA90A48ED
:101750000C94FFF73DFC6020CDE9000402940422C4
:10176000694605480494FFF7B7FD0348FFF78EFD6F
:101770000EB010BD00040040B0000020FEE770472E
:101780000907090E002806DA00F00F0000F1E0203A
:1017900080F8141D704700F1E02080F800147047B5
:1017A0007047704710B5FFF7DBF8BDE8104000F058
:1017B0009CBB30B58FB028216846FEF7CAFC1421C7
:1017C0000AA8FEF7C6FC01210804CDE90010002498
:1017D000029402250491CDE907504FF4E0100990DE
:1017E0006846FFF75FFA0F20CDE90A056802CDE9E8
:1017F0000C4002210AA80E94FFF748F90FB030BD43
:101800000D48016841F00101016041680B4A114037
:10181000416001680A4A11400160016821F4802199
:101820000160416821F4FE0141604FF41F018160B5
:101830000449C00308607047001002400000FFF830
:10184000FFFFF6FE08ED00E0F0B50268164B174CFE
:10185000174D4FF08047984205D0B84203D0A042C0
:1018600001D0A84203D122F070064A683243984260
:1018700005D0B84203D0A04201D0A84203D122F43F
:101880004074CA68224322F080044A6922430260FD
:101890008A68C2620A688262984201D1096901635A
:1018A00001214161F0BD0000002C01400004004016
:1018B0000008004010B50123046A8B409C43046279
:1018C000036A8A401343036210BD10B5846842EA7C
:1018D000032224F47F440A432243826010BD8268BD
:1018E00022F070020A4342F0070181607047000055
:1018F00030B5026A22F001020262026A436884691A
:1019000024F073050C682C4322F002058A682A43F0
:101910000A4DA8420BD122F00805CA6823F440738F
:101920002A434D6922F004021D438B692B43436017
:10193000846149684163026230BD0000002C0140AF
:1019400030B5026A22F010020262026A43688469BA
:101950000D6824F4E64444EA05248D6822F0200250
:1019600042EA05120B4DA8420ED1CD6822F080024A
:1019700042EA05124D6923F4406343EA85038D6909
:1019800022F0400243EA8503436084614968816331
:10199000026230BD002C014030B5026A22F4807230
:1019A0000262036A4268C46923F4007324F0730579
:1019B0000C682C438D6843EA05230C4DA8420ED1D8
:1019C000CD6823F4006343EA05234D6922F44052B5
:1019D00042EA05128D6923F4806342EA05124260EF
:1019E000C4614968C163036230BD0000002C01403E
:1019F00030B5026A22F480520262046A4268C36906
:101A00000D6823F4E64343EA05238D6824F400546B
:101A100044EA0534064DA84204D14D6922F48042BF
:101A200042EA85124260C36149680164046230BDC4
:101A3000002C014010B5036A046A24F0010404621A
:101A4000846924F0F00444EA021423F00A020A43F1
:101A50008461026210BD10B5036A23F010030362B3
:101A60008369046A23F4704343EA023224F0A0033A
:101A700043EA01118261016210BD10B5406A002184
:101A8000C185C184FFF7C4FC10BD0168CA6822F497
:101A90009072CA6001684A6922F001024A612021FD
:101AA00080F83A10704710B590F83A10222901D00A
:101AB000022010BD8168B1F5805F11D00169002955
:101AC00001681FD0496801F07F03816A4A1C826265
:101AD0000B70C18D491E0904090CC18518D02BE07B
:101AE0000269816A002A0268526805D0D2B20A806F
:101AF000816A491C8162ECE7C2F308020A80816AAC
:101B0000891CF7E74A68816A4B1C83620A70E0E728
:101B10000168CA6822F02002CA600168CA6822F41B
:101B20008072CA6001684A6922F001024A6120217C
:101B300080F83A10FFF768FD002010BD2DE9F04154
:101B4000044600680169E26821F4405111430161D3
:101B50002169A0680843616908432168CA6841F2A5
:101B60000C639A430243CA6020684169A26921F468
:101B70004071114341614C492068642532268842F6
:101B80003CD1FFF749F800EBC00101EB00106168A0
:101B90008900B0FBF1F7FFF73FF800EBC00101EB64
:101BA00000106168B0468900B0FBF1F0B0FBF5F0C1
:101BB0006FF01801484307EB800106EB0110B0FB02
:101BC000F5F000F0F006FFF727F800EBC00101EB9D
:101BD000001061688900B0FBF1F0B0FBF5F006EB96
:101BE0000016FFF719F800EBC00101EB0010616867
:101BF0008900B0FBF1F7FFF70FF83BE0FEF7FCFFC1
:101C000000EBC00101EB001061688900B0FBF1F747
:101C1000FEF7F2FF00EBC00101EB00106168B04677
:101C20008900B0FBF1F0B0FBF5F06FF0180148430C
:101C300007EB800106EB0110B0FBF5F000F0F006B9
:101C4000FEF7DAFF00EBC00101EB001061688900CC
:101C5000B0FBF1F0B0FBF5F006EB0016FEF7CCFFA1
:101C600000EBC00101EB001061688900B0FBF1F7E7
:101C7000FEF7C2FF00EBC00101EB001061688900B4
:101C8000B0FBF1F0B0FBF5F06FF01801484307EB43
:101C9000800108EB0110B0FBF5F0216800F00F00A7
:101CA00030448860BDE8F0810038014090F8391078
:101CB000212901D0022070478168B1F5805F016A57
:101CC0000BD04A1C0262026809785160C18C491E1F
:101CD0000904090CC1840ED017E009880268C1F319
:101CE0000801516001690029016A02D0491C0162A2
:101CF000ECE7891CFBE70168CA6822F08002CA6031
:101D00000068C16841F04001C160002070470000D8
:101D10000148FFF77FBB0000F0000020FEE702E073
:101D200008C8121F08C1002AFAD170477047002066
:101D300001E001C1121F002AFBD170472DE9F041DB
:101D40002B4CA06B2061FEF797FB2A4D00222B46FF
:101D5000FEF7B1FA0022284BFEF71FFB0022274BAB
:101D6000FEF71BFB264A274BFEF7A5FA264A274B10
:101D7000FEF7A1FA00222B46FEF79DFAC4E91601F0
:101D800002460B46D4E91201FEF78FFAC4E91401AA
:101D900005460E466069FEF79FFB2A463346FEF76E
:101DA00087FA07468846206AFEF796FB3A4643467E
:101DB000FEF781FA07468846E069FEF78DFB2A4662
:101DC0003346FEF778FA43463A46FEF7CDF9FEF77A
:101DD00064FB0746A06128463146FEF790FB606130
:101DE000384600F077F80A490860BDE8F081000045
:101DF0000000002000408F400060A0400000334001
:101E00007A008BFCFA2109407B14AE47E17AA43FAB
:101E1000380400404FF08040416A06484163C26B7D
:101E20008A1AC0E90E21016C11440164426C511AF6
:101E30004164704700000020FEF79AFDFFF7B9FCEF
:101E4000FFF7E6FBFFF730FC1E481D490C2201603E
:101E50004FF41651416000218160C160C0E9041255
:101E60008161C161FFF75EFBFFF74CFC154818214B
:101E70008038FFF7F1F9144C012210212046FEF7BB
:101E800063FD012240212046FEF75EFD0022202155
:101E90002046FEF759FD0B4804214038FFF7A0FA11
:101EA0000A494FF400400860094D84104FF4FA7657
:101EB00021462846FEF744FD3046FEF751FCF7E781
:101EC00000440040F00000200008014038040040B9
:101ED00000100140B0F5803F02DB4FF6FF70704705
:101EE0000028FCDA4FF48050704710B5FFF792FFDE
:101EF000BDE81040FFF722BF000000000000000016
:101F0000010203040607080900000000010203049F
:101F1000301F000800000020700000001E1D000897
:101F2000A01F000870000020C00400002E1D000843
:101F300000000000000000000000000000000000A1
:101F40000000000000000000000000000000484207
:101F50000000804000001644000016440000803F4E
:101F60000000803F000000000000000000000000B2
:101F700000000000000000000000000000407F4062
:101F80000000000000000000000000000000000051
:101F900001000000100000000000000000A24A0440
:04000005080000ED02
:00000001FF
