:020000040800F2
:100000007006002001010008F31F00080D1D000804
:10001000F11F0008B5070008B52500080000000022
:100020000000000000000000000000001720000891
:10003000B70700080000000015200008192000087C
:100040001B0100081B0100081B0100081B01000820
:100050001B0100081B0100081B0100081B01000810
:100060001B0100081B0100081B0100081B01000800
:100070001B0100081B0100081B0100081B010008F0
:100080001B0100081B0100081B0100081B010008E0
:100090001B0100081B0100081B0100081B010008D0
:1000A0001B0100081B0100081B0100081B010008C0
:1000B0001B0100081B0100081B0100081B010008B0
:1000C0001B0100081B0100081B0100081B010008A0
:1000D0001B0100081B010008A92500081B010008DE
:1000E0001B0100081B0100081B010008DFF80CD0F1
:1000F00000F018FB004800470D270008700600209C
:100100000648804706480047FEE7FEE7FEE7FEE7B1
:10011000FEE7FEE7FEE7FEE7FEE7FEE799200008C0
:10012000ED000008202A04DB203A21FA02F0002129
:10013000704721FA02F3D040C2F1200291400843F7
:1001400019467047D2B201E000F8012B491EFBD2DC
:1001500070470022F6E710B513460A4604461946D2
:10016000FFF7F0FF204610BDF0B480EA0102D40F83
:100170004200B2EB410F02D20246084611464A0045
:1001800042D0C30DDDB2C1F3C752AD1A202D35DA0E
:10019000C1F3160141F4000204B15242C5F1200638
:1001A00002FA06F12A411044B3EBD05F23D0C4B168
:1001B000012DA0EBC35009DCF0BC4FF0004202EA75
:1001C000C352DBB200F5000000F021BA400000F19C
:1001D000807000EBC350A0F1807040EAD1704900FC
:1001E00009E0490841EAC071A0EBC35000F50000E6
:1001F000400800EBC350F0BC00F000BA614201229D
:1002000002EB4101001BF6E7F0BC704781F00041B2
:10021000AAE780F00040A7E780EA010210B502F0EB
:100220000043400022D04A001FD0010E01EB1261B2
:10023000C0F35600C2F3560240F4000042F400023C
:10024000A0FB022000047F39140400D0401C50EAB7
:10025000124001D44000491EC2B20C0604EBD0107B
:10026000401C4008802A02D003E0002010BD20F08E
:100270000100002900DA0020184310BD30B480EAE4
:10028000010202F0004530F0004221F0004013D09E
:1002900090B1C30DD40DC2F31601C0F31600E41AD9
:1002A00041F4000140F400027D34914201D3641C0A
:1002B00000E04900002C02DA30BC002070474FF407
:1002C00000000023914201D3891A034340084FEAFA
:1002D0004101F7D151B1914202D14FF0004105E007
:1002E00002D24FF0010101E06FF0010103EBC450B5
:1002F000284430BC00F082B9420005D0C0F3C75298
:100300005242914201DC0020704700EBC15070471F
:100310002DE9FE4F81EA030404F0004421F000417E
:1003200000944FF0000B23F0004350EA01045ED02C
:1003300052EA03045BD0C3F30A54C1F30A552C44B8
:10034000A4F2F3340194A0FB0254C1F3130141F46D
:100350008011C3F3130343F4801301FB024400FB39
:10036000034E840A970A44EA815447EA8357A4FB60
:10037000076802958D0A05FB07854FEA932C04FB5D
:100380000C542705029D4FEA065847EA1637B5EB8D
:1003900008056EEB070C870E920E47EA811742EABA
:1003A0008312A7FB0201B6EB0B0164EB00042B0DDB
:1003B00043EA0C335E1844EB1C50DA465146E7FB27
:1003C0000201C5F313044FEA0B3343EA14534FEA17
:1003D0000432019C43EA0603A4F10C040294009C3D
:1003E000CDE900B400F050F903B0BDE8F08F002073
:1003F0000146F9E72DE9F04D81EA030404F0004BD2
:1004000021F0004514464FF0000A23F0004150EA65
:10041000050220D054EA01021DD0C5F30A57024656
:10042000C5F31303C1F31300C1F30A5640F480155A
:1004300043F48013A7EB0608101BD64608F2FD38DC
:1004400073EB050002D308F1010801E092185B414B
:10045000B8F1000F03DA00200146BDE8F08D00205E
:100460004FF48011064684460EE0171B73EB050718
:1004700005D3121B63EB050306434CEA010C490844
:100480004FEA300092185B4150EA0107EDD152EA81
:10049000030012D082EA040083EA0501084305D074
:1004A000101BAB4106D20122002306E000224FF0D0
:1004B000004302E06FF0010253101AEB06004CEB10
:1004C000085110EB0A0041EB0B01BDE8F04D00F0C4
:1004D000CCB8C10F80EAE0700844CA079623002117
:1004E00000F095B80EB5C10F80EAE0700844CA0765
:1004F000002140F233438DE80E000A460B4600F01F
:10050000C3F803B000BD00F0004220F00040C10D70
:10051000C0F3160040F400007F2901DA0020704784
:10052000962903DCC1F19601C84001E09639884064
:10053000002AF4D04042704770B5C1F30A5201F06E
:1005400000450024C1F3130140F2FF3341F4801150
:100550009A4201DA002070BD40F233439A42A2F27F
:10056000334203DC5242FFF7DDFD00E090402C43B4
:10057000F1D0404270BD00F0004230F000400AD09F
:10058000C10D01F56071C0F3160042EA0151C208C5
:1005900040071143704700200146704701F00043B7
:1005A00030B421F0004150EA010206D00A0DA2F554
:1005B0006072C1F31301002A02DC30BC00207047D6
:1005C000440F44EAC104C100E01830BC00EBC25043
:1005D00000F014B8002801DBC0F10040002901DB65
:1005E000C1F1004181427047002801DBC0F10040A9
:1005F000002901DBC1F10041884270470029A8BFF2
:100600007047401C490008BF20F00100704710B43B
:10061000B0FA80FC00FA0CF050EA010404BF10BCF0
:10062000704749B1CCF1200421FA04F411FA0CF11D
:1006300018BF012121430843A3EB0C01CB1D4FEA56
:1006400000614FEA102042BF002010BC704700EB51
:10065000C35010440029A4BF10BC7047401C49007F
:1006600008BF20F0010010BC704710B5141E73F1D4
:10067000000408DA401C41F1000192185B411A4362
:1006800001D120F0010010BD2DE9F04D92469B46AE
:1006900011B1B1FA81F202E0B0FA80F22032904654
:1006A00000F052F804460F4640EA0A0041EA0B0106
:1006B00053465A46084313D0114653EA010019D055
:1006C000C8F140025046FFF72DFD05460E46504644
:1006D0005946424600F038F8084305D0012004E0AE
:1006E00020463946BDE8F08D0020054346EAE07615
:1006F0002C4337430A986305E40AA0EB0800002264
:10070000FD0A44EA47540A3002D500200146E9E7D1
:10071000010510196941DDE9084500196941BDE885
:10072000F04DA2E7064C074D06E0E06840F00103FB
:1007300094E8070098471034AC42F6D3FFF7DAFC90
:10074000602B0008802B0008202A04DB203A00FAE6
:1007500002F1002070479140C2F1200320FA03F318
:10076000194390407047000070B5044600688168E6
:10077000C943C9071CD1816821F00101816000F0E3
:1007800099FA05460FE000BF00F094FA401B0228DA
:1007900009D9A06A40F01000A062E06A40F00100B0
:1007A000E062012070BD20688068C043C007EBD0C4
:1007B000002070BDFEE77047F8B50024009490F863
:1007C00024202546012A12D0012280F824204A68DC
:1007D0001F23072A0DD20668776B521E02EB820296
:1007E00093409F430B6893401F43776319E00220B7
:1007F000F8BD06680D2A0AD2376BD21F02EB8202BF
:1008000093409F430B6893401F43376309E0F76AA7
:100810000D3A02EB820293409F430B6893401F43C3
:10082000F7620A68072306680A2A0AD3F7680A3AB1
:1008300002EB420293409F438B6893401F43F76053
:1008400008E0376902EB420293409F438B68934074
:100850001F4337610A68102A01D0112A20D1124B98
:1008600002689A4217D193681B0219D4936843F423
:10087000000393600968102912D10C490C4A0968D9
:10088000B1FBF2F101EB8101490000E0491E00914A
:100890000029FBD104E0816A41F02001816201243A
:1008A00080F824502046F8BD00240140A800002014
:1008B00040420F002DE9F0414FF0000704003D4693
:1008C0007ED0A06A002628B9E66284F8246020461B
:1008D00000F07EF82046FFF747FFA16AC90600D462
:1008E00020B1A06A40F01000A06269E0A16A21F482
:1008F000885141F00201A1626268E169E3680A433C
:1009000047EA43010A43A1684FF48077B94209D00E
:10091000012907D05FF00001D4F814C0BCF1010F29
:1009200002D00AE03946F7E7F3B1A36A43F02003A7
:10093000A362E36A43F00103E3622368D3F804C0CF
:100940002CF4694C4CEA010CC3F804C021688B6894
:10095000DFF870C003EA0C0313438B60A168B9424F
:100960000BD0012909D00CE0DFF85CC0A3690CEBC7
:1009700043330B4343F40061DFE7218A0D05A5F5FE
:1009800080152168CB6A23F470032B43CB62216866
:1009900089680E4B1940914208D1E662A16A21F0A4
:1009A000020141F00101A162BDE8F081A06A20F0DE
:1009B000020040F01000A062E06A40F00100E06236
:1009C0000120F1E7FDF7E1FF00E0FFFFFE0E1FFF52
:1009D00000B585B00021009101910291039100685A
:1009E0000E49884218D10E48816941F40071816135
:1009F000816901F400710491816941F0080181610C
:100A00008069694600F008000490022000900320ED
:100A10000190044800F066F805B000BD00240140D4
:100A200000100240000C014010B590F82110002485
:100A3000022903D00421816301243DE001680A6892
:100A400022F00E020A6001680A6822F001020A60C0
:100A50001A4A0168914201D1012121E0174A14325A
:100A6000914201D110211BE0144A2832914201D158
:100A7000891515E0114A3C32914201D189140FE0E9
:100A80000E4A5032914202D14FF4803108E00B4AB5
:100A90006432914202D14FF4801101E04FF0807135
:100AA000064A083A5160012180F82110002180F89F
:100AB0002010416B01B18847204610BD080002405C
:100AC00070B5044600F0F6F80546601C02D00448F4
:100AD0000078044400F0EEF8401BA042FAD370BD49
:100AE0009C0000202DE9F84FDFF890A100220AF1C8
:100AF000040B144601274FF00F090BF1040E00BF41
:100B00000B6807FA04F52B40AB4274D1DFF870C1D3
:100B10004E68A6EB0C0866452BD00DDC032E34D0B6
:100B200005DC36B3012E19D0022E2FD11BE0112E79
:100B300016D0122E2AD119E0B8F5881F19D006DC7C
:100B4000B8F5803F15D0B8F5801F1FD111E0B8F57A
:100B5000001F0ED0B8F5041F18D10AE0CA6815E0CE
:100B6000CA68121D12E0CA6808320FE0CA680C3267
:100B70000CE08A682AB1012A4FF0080203D04561CF
:100B800004E0042202E0056100E00022FF2B01D80E
:100B9000064601E000F104064FEA840501D9A5F1FB
:100BA0002005D6F800C009FA05F82CEA080C02FA6C
:100BB00005F54CEA050CC6F800C04D68ED0057D5A8
:100BC000304DAE6946F00106AE61AD6924F0030612
:100BD00005F0010500952C4D06EB050CDCF80850DE
:100BE000A6074FEA167809FA08F6B543274EB04231
:100BF00002D1002610E03BE0254EB04201D1012693
:100C00000AE0244EB04201D1022605E0224EB04255
:100C100001D1032600E0042606FA08F62E43CCF89C
:100C200008604D68DAF80060ED03554601D51E43B3
:100C300000E09E432E604D68DBF80060AD035D462A
:100C400001D51E4300E09E432E604D68DEF8006033
:100C5000ED02754601D51E4300E09E432E604D68AF
:100C6000AD020E4D2E6801D51E4300E09E432E605E
:100C7000641C102CFFF444AFBDE8F88F0004014061
:100C80000000111000100240000001400008014067
:100C9000000C014000100140001401400C04014010
:100CA000C2684A40C26070470AB1016170470904D6
:100CB000FBE7000001488068704700009C000020AE
:100CC00070B504001BD094F83D00002520B984F8CD
:100CD0003C50204600F094F8242084F83D00206821
:100CE000016821F00101016000F084FA404A616866
:100CF000914201D83F4900E03F49884201D201209A
:100D000070BD3E492368B0FBF1F1596063689342BE
:100D100006D94FF4967359434FF47A73B1FBF3F14C
:100D20002368491C19626168914210D84900401E2D
:100D3000B0FBF1F2521CC2F30B02042A01D20420D0
:100D400022E0B0FBF1F0401CC0F30B001CE0A368F4
:100D5000CBB301EBC10202EB0116421EB2FBF6F26D
:100D6000521C42F48042120536D06BB301EBC10233
:100D700002EB0111401EB0FBF1F0401CC0F30B0070
:100D800040F4804040F400402168C861D4E9070184
:100D9000084321680860D4E903100843216888608B
:100DA000D4E9050108432168C8602068016841F062
:100DB000010101602564202084F83D00256384F84A
:100DC0003E50002070BD00E008E001EB4106421EED
:100DD000B2FBF6F2521CC6E70120D5E701EB410158
:100DE000401EB0FBF1F0401CC0F30B00CAE700004E
:100DF000A086010080841E0000093D0040420F00D3
:100E000010B586B000210091019102910391006814
:100E10001349884222D1134CA06940F00800A06118
:100E2000A069694600F0080004904FF440700090FB
:100E300012200190032003900B48FFF753FE0B484C
:100E4000416841F0E06141F002014160E06940F435
:100E50000010E061E06900F40010049006B010BDDD
:100E60000054004000100240000C0140000001400E
:100E70000248816802781144816070479C0000201C
:100E8000074810B5016841F010010160032000F02F
:100E900073F8002000F006F800F024F8002010BDE0
:100EA0000020024070B50D4D04464FF47A71287849
:100EB000B1FBF0F00A490968B1FBF0F000F072FBF9
:100EC00048B9102C07D200222146501E00F034F8F9
:100ED00000206C6070BD012070BD00009C000020EF
:100EE000A80000200C4808B5816941F0010181612A
:100EF000816901F001010091C16941F08051C16136
:100F0000C06900F0805000900448416821F0E06121
:100F100041F00071416008BD001002400000014036
:100F200000F01F02012191404009800000F1E02003
:100F3000C0F8001170470000F0B40E4B1B680C465F
:100F4000C3F30223C3F10705042D00D90425191D9D
:100F5000072901D2002300E0DB1E012606FA05F175
:100F6000491E214099409E40761E16403143F0BCF8
:100F700001F040B80CED00E0064900F007020868F7
:100F80004FF6FF03184040EA0220034A104308606E
:100F9000704700000CED00E00000FA052DE9F84371
:100FA00005460078354CC00754D0E0690026C000E3
:100FB00008D4E06940F08050E061E069012600F06B
:100FC000805000902E480168C90512D401688046FF
:100FD00041F480710160FFF76DFE074605E000BF38
:100FE000FFF768FEC01B642823D8D8F80000C005AE
:100FF000F6D5206A10F4407021D0A98801F4407120
:1010000081421CD0206A1F49012220F440700A60EE
:1010100000220A602062C00711D0FFF74BFE07468E
:1010200041F2883808E000BFFFF744FEC11B41458C
:1010300002D90320BDE8F883206A8007F4D5206A2E
:10104000696820F44070084320621EB1E06920F016
:101050008050E0612878800705D56068A96820F491
:101060004040084360602878C00605D56068E9689C
:1010700020F48000084360600020DBE7001002409D
:1010800000700040400442422DE9F047DFF85481EF
:1010900005460E46D8F8000000F00700B0420CD21A
:1010A000D8F8001021F007013143C8F80010D8F833
:1010B000000000F00700B0426FD128684A4C810759
:1010C00012D5400703D5606840F4E060606028787E
:1010D000000703D5606840F4605060606068A968EC
:1010E00020F0F000084360602878C00744D06868AA
:1010F000012816D02168022816D0890700294CDA69
:10110000616821F0030101436160FFF7D3FD696865
:10111000074641F2883001290ED00229814618D0B5
:1011200026E021688903E9E78901E7E7FFF7C2FDC7
:10113000C11B494501D918E081466068C0F38100B0
:101140000128F3D118E000BFFFF7B4FDC11B4945EA
:101150000BD86068C0F381000228F5D10CE000BF15
:10116000FFF7A8FDC11B494502D90320BDE8F08760
:10117000606810F00C0FF3D1D8F80010404601F071
:101180000701B1420BD9016821F007013143016029
:10119000006800F00700B04201D00120E6E728789F
:1011A000400705D56068E96820F4E06008436060A6
:1011B0002878000706D56068296920F4605040EA65
:1011C000C100606000F036F86168084AC1F303119D
:1011D000515CC840064908600020FFF763FE00200C
:1011E000C4E700000020024000100240482B000825
:1011F000A80000200448054900684968044AC1F372
:101200000221515CC8407047A80000200010024035
:10121000582B00080448054900684968044AC1F38E
:10122000C221515CC8407047A80000200010024055
:10123000582B000812A185B00FC98DE80F0014A02B
:10124000144A006804905168134801F00C03042B01
:1012500010D0082B0ED1C1F38343C9031DF803003E
:101260000AD5516804AAC1F34041515C0A4A50436F
:10127000B0FBF1F005B0704708494843FAE70000B9
:1012800002030405060708090A0B0C0D0E0F1010C7
:10129000010200000010024000127A0000093D0027
:1012A0002DE9F84F04460078B94DC00748D068686A
:1012B000C0F38100012807D06868C0F381000228CC
:1012C00009D16868C00306D52868800338D56068EE
:1012D00000286FD034E06068B0F5803F0BD010B1CB
:1012E000B0F5A02F11D0286820F48030286028683D
:1012F00020F4802002E0286840F480302860606894
:1013000088B1FFF7D7FC064609E0286840F4802042
:101310002860F0E7FFF7CEFC801B642875D82868AA
:101320008003F7D50CE0FFF7C5FC064605E000BFDB
:10133000FFF7C0FC801B6428F0D828688003F7D42E
:101340002078944E80074FF001094FF000083BD5FC
:10135000686810F00C0F07D06868C0F3810002289D
:1013600009D16868C00306D42868800714D52069AD
:1013700001281FD110E02069B0B1C6F80090FFF736
:1013800099FC074605E000BFFFF794FCC01B02284C
:10139000C4D828688007F7D52868616920F0F8006C
:1013A00040EAC10028600FE0C6F80080FFF782FC29
:1013B000074606E0E9E000BFFFF77CFCC01B0228FF
:1013C00023D828688007F7D4207800072CD57248E6
:1013D000A169D9B1C0F80090FFF76CFC074604E0A2
:1013E000FFF768FCC01B02280FD8686A8007F7D592
:1013F0006A484FF4FA510068B0FBF1F0009000BF6A
:101400000098411E0091FAD20EE080E0C0F8008002
:10141000FFF750FC074604E0FFF74CFCC01B022816
:1014200075D8686A8007F7D42078400760D5E869E6
:101430000027C00008D4E86940F08050E861E869FE
:10144000012700F08050009055480168C90513D469
:101450000168834641F480710160FFF72BFC8246EE
:1014600006E000BFFFF726FCA0EB0A0064284ED878
:10147000DBF80000C005F5D5E06801280AD008B106
:10148000052813D0286A20F001002862286A20F07D
:10149000040002E0286A40F001002862E06841F29E
:1014A000883B98B1FFF706FC82460BE0286A40F0C3
:1014B00004002862EEE700BFFFF7FCFBA0EB0A0187
:1014C00059455AD8286A8007F6D50CE0FFF7F2FB99
:1014D000824605E0FFF7EEFBA0EB0A0159454CD828
:1014E000286A8007F6D41FB1E86920F08050E861CF
:1014F000E06988B36968C1F38101022945D00228F7
:10150000C6F8608004D0FFF7D5FB044638E034E02D
:10151000FFF7D0FB074604E0FFF7CCFBC01B022817
:101520002BD828688001F7D4206AB0F5803F05D118
:101530006868A16820F4003008436860D4E90801B5
:101540000843696821F4741108436860C6F8609024
:10155000FFF7B0FB044606E015E000BFFFF7AAFB6B
:10156000001B022809D828688001F7D50BE000BFCE
:10157000FFF7A0FB001B022802D90320BDE8F88F6B
:1015800028688001F4D40020F8E70120F6E7000085
:10159000001002400000424280044242A8000020A5
:1015A0000070004010B5401EB0F1807F01D30120D3
:1015B00010BD4FF0E02460610F21601700F01AFDAC
:1015C0000020A06107202061002010BD10B590F818
:1015D0003C20012A25D0012280F83C20CA688C6872
:1015E00022F4407222434C6822F4806222430C6849
:1015F00022F4006222430C6922F4805222434C6997
:1016000022F4005222438C6922F48042224322F4C5
:101610000041026800232143516480F83C300020DF
:1016200010BD022010BD30B590F83C20012A20D01A
:10163000012280F83C20022380F83D3003685C687A
:1016400024F070045C6003685C680D682C435C6087
:1016500003689C6824F080049C6003689C68496867
:101660000C439C6080F83D20002180F83C10084627
:1016700030BD022030BD10B5040003D094F83D0009
:1016800010B107E0012010BD002084F83C00204686
:1016900000F00CF8022084F83D00211D206800F0C5
:1016A0001FFD012084F83D00002010BD08B5006832
:1016B0000649884208D10648C16941F00201C1616A
:1016C000C06900F00200009008BD00000004004066
:1016D0000010024070B5044690F83C00012817D075
:1016E000012584F83C50022084F83D00206882687F
:1016F00022F0770222F47F4282600868502837D0B7
:101700000DDC202859D005DC88B3102841D151E0E8
:10171000022070BD302853D040283AD13FE06028E5
:101720002ED070280BD0B0F5805F03D0B0F5005FED
:101730002FD110E02068816821F0070115E0CB6807
:10174000D1E90121206800F00CFD2168886840F093
:10175000770088601DE0CB68D1E90121206800F0A6
:1017600000FD2068816841F48041816011E01EE045
:10177000CA684968206800F0A9FD5021206806E089
:10178000CA684968206800F0B2FD6021206800F056
:10179000F2FC84F83D50002084F83C0070BDCA681B
:1017A0004968206800F092FD40212068EFE70021A1
:1017B0002068ECE710212068E9E720212068E6E7AF
:1017C00030212068E3E72DE9F0410D46040003D005
:1017D00094F83D0018B108E00120BDE8F081002038
:1017E00084F83C00204600F039F8022084F83D00DF
:1017F0002068816821F007018160211D206800F0C8
:101800006FFC226890689169166A2B68AF69034380
:1018100040F20330814341EA0721A868EF69084399
:101820004FF6FC418843E96840EA072001432869F4
:101830002F6A000140EA0730084369686D6926F0A5
:10184000AA0646EA0515294393602268906120683C
:101850000162012084F83D000020BEE700B585B09C
:101860000021009101910291039101681A48B1F1A0
:10187000804F1BD0194A914216D1C16941F0040131
:10188000C161C16901F004010491816941F008015D
:1018900081618069694600F008000490C0200090D2
:1018A0000F4800BFFFF71EF905B000BDC16941F048
:1018B0000101C161C16901F001010491816941F037
:1018C000040181618069694600F0040004900320EE
:1018D00000900448E6E700000010024000080040C5
:1018E000000C01400008014010B50446006891B1A9
:1018F000042904D00122002100F028FC20680122E4
:101900005FF0040100F022FC2068016841F0010151
:101910000160002010BD01220021F3E710B586B060
:10192000002100910191029103911C4B02681C4916
:1019300002241C489A420DD18A6942F004028A614D
:101940008969039401F0040104910115CDE90014A3
:1019500069461FE0144B9A421ED18A6942F0040284
:101960008A618A6902F0040204928A6942F00802DC
:101970008A618969039401F0080104918021CDE90D
:1019800000146946FFF7AEF80120CDE9000469466E
:1019900006480394FFF7A6F806B010BD002C0140DE
:1019A000001002400008014000040040000C01400B
:1019B00070B5044690F83C000D4601280DD0012674
:1019C00084F83C60022084F83D0042B1042A18D01B
:1019D000082A2AD00C2A4DD139E0022070BD206897
:1019E00000F0D2FB2068816941F008018161206824
:1019F000816921F004018161206881692A691143AC
:101A000011E0206800F0E8FB2068816941F4006182
:101A100081612068816921F4806181612068816928
:101A20002A6941EA0221816124E0206800F000FC7B
:101A30002068C16941F00801C1612068C16921F0D5
:101A40000401C1612068C1692A69114311E020685D
:101A500000F01AFC2068C16941F40061C16120688E
:101A6000C16921F48061C1612068C1692A6941EAC4
:101A70000221C16184F83D60002084F83C0070BD03
:101A800010B5040003D094F83D0010B107E0012028
:101A900010BD002084F83C00204600F00DF8022024
:101AA00084F83D00211D206800F01AFB012084F815
:101AB0003D00002010BD000008B5006806498842BE
:101AC00008D10648816941F400618161806900F4B0
:101AD0000060009008BD0000002C01400010024092
:101AE00010B504460068012200F030FB0749206869
:101AF000884203D1416C41F400414164206801688F
:101B000041F001010160002010BD0000002C0140E7
:101B10007047000070B5026804461068D1685369C8
:101B200010F00F0F50D003F0010501F4907635430B
:101B30005DD0C20705D0CA0503D5E26B42F00102B1
:101B4000E263420705D5DA0703D0E26B42F00202F6
:101B5000E263820705D5DA0703D0E26B42F00402A4
:101B6000E263020705D5DA0703D0E26B42F0080210
:101B7000E263E26B002A33D0800604D5880602D5E2
:101B8000204600F0DCFB20684069E16BC0F3801068
:101B9000090700D428B3204600F0C3FB2068416940
:101BA00049061AD5416921F040014161606BA0B13D
:101BB0001B494163606BFEF737FF002810D0606B54
:101BC000416BBDE870400847830610D58B060ED5E3
:101BD0002046BDE8704000F0B2BB2046FFF798FFFA
:101BE00070BD2046FFF794FF0020E06370BD030640
:101BF00006D50B0604D52046BDE8704000F0A2BC17
:101C00004006F3D54806F1D5D168204621F04001C1
:101C1000D160202184F8391000F077F870BD000001
:101C20001323000870B5040004D094F8390000258F
:101C300010B106E0012070BD84F83850204600F055
:101C400023F8242084F839002068C16821F4005169
:101C5000C160204600F0BEFB2068016921F490417C
:101C600001612068416921F02A0141612068C16851
:101C700041F40051C160E563202084F8390084F804
:101C80003A00002070BD000030B585B000240094FB
:101C90000194029403940068184988422BD1184893
:101CA000C16941F40031C161C16901F4003104919D
:101CB000816941F0040181618069124D00F00400E6
:101CC00004900420009002200190032003906946B4
:101CD0002846FEF707FF0820CDE90004694628469C
:101CE0000294FEF7FFFE002211462620FFF724F99A
:101CF0002620FFF715F905B030BD00000044004074
:101D0000001002400008014070477047FEE70000E5
:101D10003EB500240D480094019402948460C46090
:101D2000094944610160012505614FF46021446067
:101D3000C161FEF7BFFD0920CDE9000569460294A7
:101D40000248FEF739FD3EBD00240140AC000020F2
:101D50002DE9F04385B000243148009401940294A9
:101D60000394816941F010018161816901F01001E2
:101D70000491816941F020018161816901F02001B4
:101D80000491816941F004018161816901F00401DC
:101D90000491816941F0080181618069214F00F05F
:101DA00008004FF460450490002229463846FEF7AB
:101DB0007BFFDFF87480002270214046FEF774FF3D
:101DC000DFF86890002230214846FEF76DFF00954D
:101DD000022601250396CDE9015469463846FEF7EF
:101DE00081FE7020CDE90005CDE9024669464046F6
:101DF000FEF778FE4FF44070CDE900046946404696
:101E00000294FEF76FFE3020CDE90005CDE90246D1
:101E100069464846FEF766FE05B0BDE8F08300005F
:101E2000001002400010014000080140000C014079
:101E300010B590B000240E941C2168460F94FEF754
:101E400088F91C2107A8FEF784F919481749C0E949
:101E500000148460C460046144618461FFF710FE73
:101E60000E940EA912480F94FFF7DDFB6020CDE918
:101E700000040294039404940594082269460C48D3
:101E80000694FFF795FD0794089409944FF40050C9
:101E90000A94CDE90B4007A905480D94FFF796FB7E
:101EA0000348FFF73BFD10B010BD0000002C0140BF
:101EB0003001002010B58CB024216846FEF749F9A6
:101EC0000024124809944FF080410A94C0E900149C
:101ED0004FF6FF71C0E90241046184610320CDE93E
:101EE00000040120CDE902040494CDE905400794E3
:101EF000694606480894FFF766FC099409A9034857
:101F00000A94FFF790FB0CB010BD00007001002098
:101F100010B58EB000240794089409940A940B9489
:101F20001C2168460C94FEF714F919481749C0E9BA
:101F3000001440F2E731C0E9024104618461FFF717
:101F40009AFB4FF48050079007A91148FFF7C2FB96
:101F50000F48FFF795FD0B940BA90D480C94FFF764
:101F600062FB6020CDE9000402940422694608481F
:101F70000494FFF71DFD082269460548FFF718FD88
:101F80000348FFF7CBFC0EB010BD0000000400407A
:101F9000B001002010B58CB024216846FEF7D9F8B6
:101FA00000241248099410490A94C0E900144FF61D
:101FB000FF71C0E90241046184610320CDE900049E
:101FC0000120CDE902040494CDE905400794694657
:101FD00006480894FFF7F7FB099409A903480A94F7
:101FE000FFF721FB0CB010BD00080040F0010020FD
:101FF000FEE770470907090E002806DA00F00F0017
:1020000000F1E02080F8141D704700F1E02080F816
:10201000001470477047704710B5FEF729FF054C54
:102020002068B0F5FA6F01D300F0DAFC2068401C9C
:10203000206010BD0800002030B593B0282168460C
:10204000FEF787F814210AA8FEF783F80024012080
:102050000F9410941194010412948DE813000490CD
:102060004FF4A010CDE90810022507956846FFF748
:1020700017F90F20CDE90A056802CDE90C400221CD
:102080000AA80E94FFF700F8680311900F950FA8A7
:10209000FEF784FF13B030BD0D48016841F0010127
:1020A000016041680B4A1140416001680A4A1140D1
:1020B0000160016821F480210160416821F4FE0182
:1020C00041604FF41F0181600449C00308607047FC
:1020D000001002400000FFF8FFFFF6FE08ED00E0F0
:1020E000F0B50268164B174C174D4FF080479842D9
:1020F00005D0B84203D0A04201D0A84203D122F0BB
:1021000070064A683243984205D0B84203D0A042D4
:1021100001D0A84203D122F44074CA68224322F0BD
:1021200080044A69224302608A68C2620A68826245
:10213000984201D10969016301214161F0BD0000AC
:10214000002C0140000400400008004010B50123AD
:10215000046A8B409C430462036A8A40134303620F
:1021600010BD10B5846842EA032224F47F440A4378
:102170002243826010BD826822F070020A4342F05E
:10218000070181607047000030B5026A22F0010249
:102190000262026A4368846924F073050C682C4368
:1021A00022F002058A682A430A4DA8420BD122F088
:1021B0000805CA6823F440732A434D6922F00402DB
:1021C0001D438B692B43436084614968416302620C
:1021D00030BD0000002C014030B5026A22F0100230
:1021E0000262026A436884690D6824F4E64444EAA2
:1021F00005248D6822F0200242EA05120B4DA84208
:102200000ED1CD6822F0800242EA05124D6923F416
:10221000406343EA85038D6922F0400243EA850367
:102220004360846149688163026230BD002C0140D3
:1022300030B5026A22F480720262036A4268C4699D
:1022400023F4007324F073050C682C438D6843EA73
:1022500005230C4DA8420ED1CD6823F4006343EA58
:1022600005234D6922F4405242EA05128D6923F498
:10227000806342EA05124260C4614968C163036237
:1022800030BD0000002C014030B5026A22F48052BB
:102290000262046A4268C3690D6823F4E64343EAB4
:1022A00005238D6824F4005444EA0534064DA84201
:1022B00004D14D6922F4804242EA85124260C36132
:1022C00049680164046230BD002C014010B5036A06
:1022D000046A24F001040462846924F0F00444EAEE
:1022E000021423F00A020A438461026210BD10B591
:1022F000036A23F0100303628369046A23F47043C2
:1023000043EA023224F0A00343EA01118261016230
:1023100010BD10B5406A0021C185C184FFF7F8FBEC
:1023200010BD0168CA6822F49072CA6001684A69E7
:1023300022F001024A61202180F83A10704710B55E
:1023400090F83A10222901D0022010BD8168B1F521
:10235000805F11D00169002901681FD0496801F030
:102360007F03816A4A1C82620B70C18D491E090479
:10237000090CC18518D02BE00269816A002A026825
:10238000526805D0D2B20A80816A491C8162ECE7AA
:10239000C2F308020A80816A891CF7E74A68816AE9
:1023A0004B1C83620A70E0E70168CA6822F02002D1
:1023B000CA600168CA6822F48072CA6001684A690A
:1023C00022F001024A61202180F83A10FFF79CFCBC
:1023D000002010BD2DE9F041044600680169E26863
:1023E00021F44051114301612169A06808436169EA
:1023F00008432168CA6841F20C639A430243CA60E9
:1024000020684169A26921F44071114341614C493E
:1024100020686425322688423CD1FEF7FBFE00EBA3
:10242000C00101EB001061688900B0FBF1F7FEF715
:10243000F1FE00EBC00101EB00106168B0468900BD
:10244000B0FBF1F0B0FBF5F06FF01801484307EB7B
:10245000800106EB0110B0FBF5F000F0F006FEF78E
:10246000D9FE00EBC00101EB001061688900B0FBF0
:10247000F1F0B0FBF5F006EB0016FEF7CBFE00EB3B
:10248000C00101EB001061688900B0FBF1F7FEF7B5
:10249000C1FE3BE0FEF7AEFE00EBC00101EB001019
:1024A00061688900B0FBF1F7FEF7A4FE00EBC00104
:1024B00001EB00106168B0468900B0FBF1F0B0FBA1
:1024C000F5F06FF01801484307EB800106EB0110AF
:1024D000B0FBF5F000F0F006FEF78CFE00EBC0015B
:1024E00001EB001061688900B0FBF1F0B0FBF5F082
:1024F00006EB0016FEF77EFE00EBC00101EB0010BC
:1025000061688900B0FBF1F7FEF774FE00EBC001D3
:1025100001EB001061688900B0FBF1F0B0FBF5F051
:102520006FF01801484307EB800108EB0110B0FB86
:10253000F5F0216800F00F0030448860BDE8F081BC
:102540000038014090F83910212901D0022070474D
:102550008168B1F5805F016A0BD04A1C0262026893
:1025600009785160C18C491E0904090CC1840ED040
:1025700017E009880268C1F3080151600169002968
:10258000016A02D0491C0162ECE7891CFBE7016883
:10259000CA6822F08002CA600068C16841F0400148
:1025A000C1600020704700000148FFF7B3BA000087
:1025B00030020020FEE702E008C8121F08C1002A0E
:1025C000FAD170477047002001E001C1121F002AB4
:1025D000FBD170472DE9F041274CD4E91B1250186C
:1025E000551AC4E90405FDF774FF2168FDF711FED3
:1025F000A169FDF7B9FD0746A0612846FDF769FF0F
:102600006168FDF706FEE169FDF7AEFDE061064693
:102610003846216AFDF7FAFD616BFDF7FDFD0546C1
:102620003946206BFDF7F8FD2946FDF79DFDFDF7C6
:102630006AFFA06205463046616AFDF7E7FDE16B7F
:10264000FDF7EAFD80463146A06BFDF7E5FD41460A
:10265000FDF78AFDFDF757FF291AE0622844C4E917
:102660001510C4E90876084600F05AF9A06DBDE8D7
:10267000F04100F085B900000C000020F0B52148C1
:10268000046821484FF0804144664B6A8366466F78
:102690004FF4704CA11BC166856FCCF1000E5A1B24
:1026A0004FF6FF770267614501DDC91B03E0714505
:1026B00002DAB91B2144C166624504DDA2F57F42FE
:1026C000FF3A026704E0724502DA791B1944016798
:1026D000D0E91B52A91801EBD1714910C165C0E9BD
:1026E0001D43C36F084C2B448034C36725682A44BC
:1026F00022601A4402EBD27252100266026D511A25
:102700000165F0BD240800400C000020FEF7B8FB76
:10271000FFF792FCFFF71CFBFFF7CCFB3B483A4965
:10272000002401604FF41651C0E901140C21C4606B
:10273000C0E904418461C461FFF774FAFFF7E8FB64
:10274000FFF728FC3348324901603349C0E90114DE
:102750004FF48041C0E9034144618461C461046273
:10276000FEF7AEFAFFF7D4FAFFF762FB00F06AF863
:10277000264804218038FFF7B3F92448082180381F
:10278000FFF7AEF9254C264DDFF898B0264E274FBF
:102790004FF400512648FEF783FA4FF4FA60FEF733
:1027A0008FF960680028F3D000204DF6D361606097
:1027B000DFF88080DFF88090DFF880A0C5F8001097
:1027C000D8F80000FDF79FFE01B20022286800F053
:1027D00067F82060FDF77DFED9F80010FDF7FAFEDE
:1027E00004D217480168CBF8001002E00020CBF8B3
:1027F000000030683968411ADAF800008142DFDBF6
:1028000030683860C4E70000004400403002002017
:1028100000540040DC000020A086010000000020E1
:102820005C000020140000206C00002098000020B4
:10283000001001400C0000205000002094000020F7
:102840009000002010B518211148FFF74DF818210D
:102850001048FFF749F8104C012210212046FEF7DE
:1028600023FA012240212046FEF71EFA00222021F1
:102870002046FEF719FA094C002220212046FEF7D7
:1028800013FA20460122BDE810401021FEF70CBAD1
:1028900070010020F001002000080140000C014000
:1028A00010B5002901DA494209B2002A01DA524280
:1028B00012B2002801DC4FF0010001FB01F102FB24
:1028C00012114FF47A7201FB02F191FBF0F04FEA22
:1028D000E07100EB51704FEAE000FDF703FE0B4A98
:1028E0000B4BFDF715FD00220A4BFDF711FD0022F1
:1028F000094BFDF77FFD0022084BFDF77BFDFDF73F
:102900001BFE002800DA404210BD000098C0ADBB9D
:10291000796A5F4000408F400060A0400000334073
:1029200070B5144D144E0446B0F57A7F02DB40F2C8
:10293000E73406E014F57A7F01DC104C0DE0002C42
:102940000BDB002220212846FEF7AEF901221021E0
:102950002846FEF7A9F9346070BD012220212846DF
:10296000FEF7A2F9002210212846FEF79DF96042E9
:10297000306070BD000C01403C04004019FCFFFFBA
:1029800070B5144D144E0446B0F57A7F02DB40F268
:10299000E73406E014F57A7F01DC104C0DE0002CE2
:1029A0000BDB012240212846FEF77EF90022202180
:1029B0002846FEF779F9346070BD00224021284690
:1029C000FEF772F9012220212846FEF76DF96042D8
:1029D000306070BD000801403804004019FCFFFF62
:1029E00010B5FFF74BFE00F005F8BDE81040FFF70B
:1029F000F1BD00002DE9F047524C4C4D4C4E4D4F6F
:102A0000DFF83481DFF83491DFF834A1A068FDF7F6
:102A100060FD2168FDF7E8FD27D20121206CFDF75C
:102A20006BFCFDF7A8FD2A463346FDF7E3FC0022C8
:102A30003B46FDF7DFFC00224346FDF769FC002220
:102A40004B46FDF765FCFDF7A9FD5146FDF716FC69
:102A50002168FDF789FB05462060A068FDF739FD78
:102A60002946FDF7B7FD32D22DE0A068FDF731FD14
:102A70002168FDF7AFFD2AD20121606CFDF73CFC17
:102A8000FDF779FD2A463346FDF7B4FC00223B46AC
:102A9000FDF7B0FC00224346FDF73AFC00224B460E
:102AA000FDF736FCFDF77AFD5146FDF7E7FB21689F
:102AB000FDF7AFFB05462060A068FDF70AFD29463B
:102AC000FDF792FD03D2A068FDF703FD2060E068EA
:102AD000FDF7FFFC6168FDF787FD12D2A16C60680D
:102AE000FDF742FB05466060E068FDF7F2FC294611
:102AF000FDF770FD03D2E068FDF7EBFC6060BDE818
:102B0000F087E068FDF7E5FC6168FDF763FDF6D24C
:102B1000E16C6068FDF77AFB05466060E068FDF7F0
:102B2000D8FC2946FDF760FDE5D3E8E798C0ADBBCA
:102B3000796A5F4000408F400060A0400000334051
:102B400000007A440C00002000000000000000009B
:102B50000102030406070809000000000102030443
:102B6000802B000800000020AC000000B625000803
:102B70002C2C0008AC000020C4050000C62500086D
:102B80000000000000000000000000000000000045
:102B90000000000000000000000000000000000035
:102BA0000000000000000000000000000000000025
:102BB00000000000000000000000000000002041B4
:102BC0000000A0400000A0400000404100007A4406
:102BD00000007A440000803F0000803F00000000B9
:102BE00000000000000000000000000000000000E5
:102BF00000000000000000000000000000000000D5
:102C000000000000000000000000000000000000C4
:102C100040010000D3DE00000000000001000000C1
:0C2C2000100000000000000000A24A04A8
:04000005080000ED02
:00000001FF
