:020000040800F2
:1000000090060020010100083B2600084F2300084D
:1000100039260008750A0008BD2C00080000000001
:100020000000000000000000000000005F26000843
:10003000770A0008000000005D260008612600081D
:100040001B0100081B0100081B0100081B01000820
:100050001B0100081B0100081B0100081B01000810
:100060001B0100081B0100081B0100081B01000800
:100070001B0100081B0100081B0100081B010008F0
:100080001B0100081B0100081B0100081B010008E0
:100090001B0100081B0100081B0100081B010008D0
:1000A0001B0100081B0100081B0100081B010008C0
:1000B0001B0100081B0100081B0100081B010008B0
:1000C0001B0100081B0100081B0100081B010008A0
:1000D0001B0100081B010008B12C00081B010008CF
:1000E0001B0100081B0100081B010008DFF80CD0F1
:1000F00000F02EFC004800476D37000890060020F5
:100100000648804706480047FEE7FEE7FEE7FEE7B1
:10011000FEE7FEE7FEE7FEE7FEE7FEE73D27000815
:10012000ED000008202A04DB203A21FA02F0002129
:10013000704721FA02F3D040C2F1200291400843F7
:1001400019467047D2B201E000F8012B491EFBD2DC
:1001500070470022F6E710B513460A4604461946D2
:10016000FFF7F0FF204610BDF0B480EA0102D40F83
:100170004200B2EB410F02D20246084611464A0045
:1001800042D0C30DDDB2C1F3C752AD1A202D35DA0E
:10019000C1F3160141F4000204B15242C5F1200638
:1001A00002FA06F12A411044B3EBD05F23D0C4B168
:1001B000012DA0EBC35009DCF0BC4FF0004202EA75
:1001C000C352DBB200F5000000F060BA400000F15D
:1001D000807000EBC350A0F1807040EAD1704900FC
:1001E00009E0490841EAC071A0EBC35000F50000E6
:1001F000400800EBC350F0BC00F03FBA614201225E
:1002000002EB4101001BF6E7F0BC704781F00041B2
:10021000AAE780F00040A7E780EA010210B502F0EB
:100220000043400022D04A001FD0010E01EB1261B2
:10023000C0F35600C2F3560240F4000042F400023C
:10024000A0FB022000047F39140400D0401C50EAB7
:10025000124001D44000491EC2B20C0604EBD0107B
:10026000401C4008802A02D003E0002010BD20F08E
:100270000100002900DA0020184310BD30B480EAE4
:10028000010202F0004530F0004221F0004013D09E
:1002900090B1C30DD40DC2F31601C0F31600E41AD9
:1002A00041F4000140F400027D34914201D3641C0A
:1002B00000E04900002C02DA30BC002070474FF407
:1002C00000000023914201D3891A034340084FEAFA
:1002D0004101F7D151B1914202D14FF0004105E007
:1002E00002D24FF0010101E06FF0010103EBC450B5
:1002F000284430BC00F0C1B9420005D0C0F3C75259
:100300005242914201DC0020704700EBC15070471F
:100310002DE9FE4F81EA030404F0004421F000417E
:1003200000944FF0000B23F0004350EA01045ED02C
:1003300052EA03045BD0C3F30A54C1F30A552C44B8
:10034000A4F2F3340194A0FB0254C1F3130141F46D
:100350008011C3F3130343F4801301FB024400FB39
:10036000034E840A970A44EA815447EA8357A4FB60
:10037000076802958D0A05FB07854FEA932C04FB5D
:100380000C542705029D4FEA065847EA1637B5EB8D
:1003900008056EEB070C870E920E47EA811742EABA
:1003A0008312A7FB0201B6EB0B0164EB00042B0DDB
:1003B00043EA0C335E1844EB1C50DA465146E7FB27
:1003C0000201C5F313044FEA0B3343EA14534FEA17
:1003D0000432019C43EA0603A4F10C040294009C3D
:1003E000CDE900B400F08FF903B0BDE8F08F002034
:1003F0000146F9E72DE9F04D81EA030404F0004BD2
:1004000021F0004514464FF0000A23F0004150EA65
:10041000050220D054EA01021DD0C5F30A57024656
:10042000C5F31303C1F31300C1F30A5640F480155A
:1004300043F48013A7EB0608101BD64608F2FD38DC
:1004400073EB050002D308F1010801E092185B414B
:10045000B8F1000F03DA00200146BDE8F08D00205E
:100460004FF48011064684460EE0171B73EB050718
:1004700005D3121B63EB050306434CEA010C490844
:100480004FEA300092185B4150EA0107EDD152EA81
:10049000030012D082EA040083EA0501084305D074
:1004A000101BAB4106D20122002306E000224FF0D0
:1004B000004302E06FF0010253101AEB06004CEB10
:1004C000085110EB0A0041EB0B01BDE8F04D00F0C4
:1004D0000BB970B521F0004303430CD0C1F30A55AA
:1004E0000024D5EB040564EB0403D617AD1AB34121
:1004F00002DB0020014670BD201841EB025170BDA7
:10050000C10F80EAE0700844CA079623002100F07A
:10051000BDB80EB5C10F80EAE0700844CA070021DB
:1005200040F233438DE80E000A460B4600F0EBF82C
:1005300003B000BD00F0004220F00040C10DC0F348
:10054000160040F400007F2901DA00207047962948
:1005500003DCC1F19601C84001E096398840002AC9
:10056000F4D04042704700F0004230F000400AD022
:10057000C10D01F56071C0F3160042EA0151C208D5
:1005800040071143704700200146704701F00043C7
:1005900030B421F0004150EA010206D00A0DA2F564
:1005A0006072C1F31301002A02DC30BC00207047E6
:1005B000440F44EAC104C100E01830BC00EBC25053
:1005C00000F05BB8002801DBC0F10040002901DB2E
:1005D000C1F1004181427047002801DBC0F10040B9
:1005E000002901DBC1F100418842704730B50B465C
:1005F000014600202022012409E021FA02F59D4253
:1006000005D303FA02F5491B04FA02F52844151E26
:10061000A2F10102F1DC30BD2DE9F05F05460020BA
:1006200092469B4688460646814640241BE0284663
:10063000414647462246FFF775FD53465A46C01AC3
:10064000914110D311461846224600F093F92D1A15
:1006500067EB01084F4622460120002100F08AF98D
:1006600017EB00094E41201EA4F10104DFDC4846CF
:1006700031462A464346BDE8F09F0029A8BF70478F
:10068000401C490008BF20F00100704710B4B0FAC8
:1006900080FC00FA0CF050EA010404BF10BC704763
:1006A00049B1CCF1200421FA04F411FA0CF118BF7D
:1006B000012121430843A3EB0C01CB1D4FEA00614C
:1006C0004FEA102042BF002010BC704700EBC3501F
:1006D00010440029A4BF10BC7047401C490008BF4B
:1006E00020F0010010BC704710B5141E73F1000417
:1006F00008DA401C41F1000192185B411A4301D114
:1007000020F0010010BD2DE9F04D92469B4611B13D
:10071000B1FA81F202E0B0FA80F22032904600F0A5
:1007200029F904460F4640EA0A0041EA0B01534604
:100730005A46084313D0114653EA010019D0C8F1B4
:1007400040025046FFF7EEFC05460E46504659461D
:10075000424600F00FF9084305D0012004E020468E
:100760003946BDE8F08D0020054346EAE0762C438B
:1007700037430A986305E40AA0EB08000022FD0A4B
:1007800044EA47540A3002D500200146E9E7010552
:1007900010196941DDE9084500196941BDE8F04DCE
:1007A000A2E72DE9FE4F804681EA0300C00F0C4608
:1007B000009021F0004123F00045B8EB0200A94170
:1007C00005D24046214690461C460B46024623F081
:1007D0000040104347D0270DC7F30A00C3F30A5166
:1007E0000290401A019040286BDAC3F3130040F4E2
:1007F000801B0098924620B10023D2EB030A63EBE2
:100800000B0B01985946C0F14002504600F0B2F877
:1008100006460D4650465946019A00F0BAF810EBCC
:1008200008006141002487EA115284EAE7731A4301
:1008300040D0009A62B3019A012A4FEA075215DCB0
:10084000001B61EB02014FF0004202EA0752CDE9C2
:100850000042001C41F5801132462B46FFF753FF42
:1008600003B0BDE8F08F40462146F9E7001B61EB7D
:100870000201001C41F5801300185B412018A2F50D
:10088000001747EB030140EAD570B6196D4111E03E
:100890006D084FEA360645EAC0754FEA0752001B5D
:1008A00061EB0201001C41F5801149084FEA30005C
:1008B0000019514132462B4603B0BDE8F04FFFF717
:1008C00013BF0098012240000023D0EB020263EB2B
:1008D000E073009821464FEAE074B8EB000061EB4A
:1008E0000401E9E783F000435BE781F0004158E74A
:1008F000C1F30A52C1F3130140F2FF3341F48011F6
:100900009A4202DA00200146704740F233439A428D
:10091000A2F2334202DC5242FFF704BC00F02AB8D4
:1009200030B5041E71F1000404DB4FF00044404276
:1009300064EB0101141E73F1000405DB1C464FF04B
:100940000043524263EB0403994208BF904230BD1A
:10095000064C074D06E0E06840F0010394E807000C
:1009600098471034AC42F6D3FFF7C4FB903D000823
:10097000B03D0008202A04DB203A00FA02F10020F2
:1009800070479140C2F1200320FA03F319439040CD
:100990007047202A06DBCB17203A41FA02F043EADF
:1009A000E07306E041FA02F3D040C2F12002914028
:1009B000084319467047000070B504460068816816
:1009C000C943C9071CD1816821F00101816000F091
:1009D000D1FB05460FE000BF00F0CCFB401B022816
:1009E00009D9A06A40F01000A062E06A40F001005E
:1009F000E062012070BD20688068C043C007EBD072
:100A0000002070BDF8B50026044600960068816895
:100A1000C943C90728D0816841F0010181601348AA
:100A200013490068B0FBF1F000E0401E0090002880
:100A3000FBD100F09FFB054611E000BF00F09AFBE0
:100A4000401B02280BD9A06A40F01000A062E06AA7
:100A500040F00100E06284F824600120F8BD2068C5
:100A60008068C043C007E9D10020F8BDC000002065
:100A700040420F00FEE77047F8B50024009490F85C
:100A800024202546012A12D0012280F824204A6819
:100A90001F23072A0DD20668776B521E02EB8202D3
:100AA00093409F430B6893401F43776319E00220F4
:100AB000F8BD06680D2A0AD2376BD21F02EB8202FC
:100AC00093409F430B6893401F43376309E0F76AE5
:100AD0000D3A02EB820293409F430B6893401F4301
:100AE000F7620A68072306680A2A0AD3F7680A3AEF
:100AF00002EB420293409F438B6893401F43F76091
:100B000008E0376902EB420293409F438B689340B1
:100B10001F4337610A68102A01D0112A20D1124BD5
:100B200002689A4217D193681B0219D4936843F460
:100B3000000393600968102912D10C490C4A096816
:100B4000B1FBF2F101EB8101490000E0491E009187
:100B50000029FBD104E0816A41F020018162012477
:100B600080F824502046F8BD00240140C000002039
:100B700040420F000068C06C704700002DE9F04152
:100B80004FF0000704003D467ED0A06A002628B939
:100B9000E66284F82460204600F07EF82046FFF7E5
:100BA0000BFFA16AC90600D420B1A06A40F0100072
:100BB000A06269E0A16A21F4885141F00201A162BA
:100BC0006268E169E3680A4347EA43010A43A168AE
:100BD0004FF48077B94209D0012907D05FF00001B6
:100BE000D4F814C0BCF1010F02D00AE03946F7E78F
:100BF000F3B1A36A43F02003A362E36A43F0010365
:100C0000E3622368D3F804C02CF4694C4CEA010C6D
:100C1000C3F804C021688B68DFF870C003EA0C03D6
:100C200013438B60A168B9420BD0012909D00CE0B5
:100C3000DFF85CC0A3690CEB43330B4343F4006162
:100C4000DFE7218A0D05A5F580152168CB6A23F41D
:100C500070032B43CB62216889680E4B1940914287
:100C600008D1E662A16A21F0020141F00101A1620E
:100C7000BDE8F081A06A20F0020040F01000A06200
:100C8000E06A40F00100E0620120F1E7FDF7E1FFDA
:100C900000E0FFFFFE0E1FFF00B585B000210091B0
:100CA00001910291039100680E49884218D10E48C3
:100CB000816941F400718161816901F400710491DD
:100CC000816941F0080181618069694600F008008E
:100CD00004900220009003200190044800F05EF987
:100CE00005B000BD0024014000100240000C01408E
:100CF0002DE9F84300260D460446009600F03AFA26
:100D0000804620688168C90508D5A06A40F02000A7
:100D1000A06284F824600120BDE8F8834168C90519
:100D200003D4C06A10F4700F26D0022000F096FBA6
:100D300038490968B1FBF0F72068036936490B426E
:100D40004FEA61014FEAA1121BD1C3684FEA611C4F
:100D500013EA0C0F15D103690B4221D1C068104270
:100D60001ED114201FE0681C06D045B300F002FA23
:100D7000A0EB0800A84222D8206800688007F2D5BE
:100D80002AE003690B4202D1C168114206D0026910
:100D900022490A4206D1C068084203D1542002E029
:100DA000292000E0FC204743009813E0681C0ED087
:100DB0002DB100F0DFF9A0EB0800A84207D9A06A26
:100DC00040F00400A06284F824600320A4E70098A7
:100DD000401C0090B842E9D321686FF0120008600F
:100DE000A06A40F40070A06220688068C0F34240AE
:100DF00007280CD1E06850B9A06A20F48070A06286
:100E0000A06AC00403D4A06A40F00100A0620020E0
:100E100082E70000C0000020244992244992240067
:100E200070B5044690F8240001280DD0012084F804
:100E300024002046FFF7E6FD02004FF0000005D039
:100E400084F82400104670BD022070BDA16A40F2F3
:100E50000123994341F48071A1621F4D23681F490A
:100E6000AB4218D10E6816F4702F14D0A66A46F45F
:100E70008016A6620E68760505D5A66A26F4005689
:100E800046F48056A662A66AF6040AD5E66A26F0FB
:100E90000606E66206E0A66A26F48016A6625E688A
:100EA000E9E7E06284F824006FF00200186020682F
:100EB0008368C3F34243072B05D1A84208D10968D0
:100EC00011F4702F04D0816841F480118160B9E77A
:100ED000816841F4A001F9E70028014004240140A1
:100EE00010B590F821100024022903D00421816359
:100EF00001243DE001680A6822F00E020A600168E0
:100F00000A6822F001020A601A4A0168914201D17E
:100F1000012121E0174A1432914201D110211BE036
:100F2000144A2832914201D1891515E0114A3C3208
:100F3000914201D189140FE00E4A5032914202D100
:100F40004FF4803108E00B4A6432914202D14FF4F1
:100F5000801101E04FF08071064A083A516001218A
:100F600080F82110002180F82010416B01B18847E2
:100F7000204610BD0800024070B5044600F0FAF8A3
:100F80000546601C02D004480078044400F0F2F8E2
:100F9000401BA042FAD370BDB40000202DE9F84FE9
:100FA000DFF890A100220AF1040B144601274FF04C
:100FB0000F090BF1040E00BF0B6807FA04F52B4074
:100FC000AB4274D1DFF870C14E68A6EB0C086645E1
:100FD0002BD00DDC032E34D005DC36B3012E19D016
:100FE000022E2FD11BE0112E16D0122E2AD119E07D
:100FF000B8F5881F19D006DCB8F5803F15D0B8F5D4
:10100000801F1FD111E0B8F5001F0ED0B8F5041FE6
:1010100018D10AE0CA6815E0CA68121D12E0CA6851
:1010200008320FE0CA680C320CE08A682AB1012A43
:101030004FF0080203D0456104E0042202E005619C
:1010400000E00022FF2B01D8064601E000F1040673
:101050004FEA840501D9A5F12005D6F800C009FAA8
:1010600005F82CEA080C02FA05F54CEA050CC6F85E
:1010700000C04D68ED0057D5304DAE6946F0010611
:10108000AE61AD6924F0030605F0010500952C4D15
:1010900006EB050CDCF80850A6074FEA167809FAAB
:1010A00008F6B543274EB04202D1002610E03BE0DF
:1010B000254EB04201D101260AE0244EB04201D1B2
:1010C000022605E0224EB04201D1032600E00426AC
:1010D00006FA08F62E43CCF808604D68DAF800608E
:1010E000ED03554601D51E4300E09E432E604D683A
:1010F000DBF80060AD035D4601D51E4300E09E4372
:101100002E604D68DEF80060ED02754601D51E4385
:1011100000E09E432E604D68AD020E4D2E6801D555
:101120001E4300E09E432E60641C102CFFF444AF6D
:10113000BDE8F88F000401400000111000100240CB
:101140000000014000080140000C01400010014077
:10115000001401400C0401408068084000D00120C8
:101160007047C2684A40C26070470AB10161704767
:101170000904FBE70148806870470000B4000020C4
:1011800070B504001BD094F83D00002520B984F808
:101190003C50204600F094F8242084F83D0020685C
:1011A000016821F00101016000F0E8FA404A61683D
:1011B000914201D83F4900E03F49884201D20120D5
:1011C00070BD3E492368B0FBF1F1596063689342FA
:1011D00006D94FF4967359434FF47A73B1FBF3F188
:1011E0002368491C19626168914210D84900401E69
:1011F000B0FBF1F2521CC2F30B02042A01D204200C
:1012000022E0B0FBF1F0401CC0F30B001CE0A3682F
:10121000CBB301EBC10202EB0116421EB2FBF6F2A8
:10122000521C42F48042120536D06BB301EBC1026E
:1012300002EB0111401EB0FBF1F0401CC0F30B00AB
:1012400040F4804040F400402168C861D4E90701BF
:10125000084321680860D4E90310084321688860C6
:10126000D4E9050108432168C8602068016841F09D
:10127000010101602564202084F83D00256384F885
:101280003E50002070BD00E008E001EB4106421E28
:10129000B2FBF6F2521CC6E70120D5E701EB410193
:1012A000401EB0FBF1F0401CC0F30B00CAE7000089
:1012B000A086010080841E0000093D0040420F000E
:1012C00010B586B000210091019102910391006850
:1012D0001349884222D1134CA06940F00800A06154
:1012E000A069694600F0080004904FF44070009037
:1012F00012200190032003900B48FFF74FFE0B488C
:10130000416841F0E06141F002014160E06940F470
:101310000010E061E06900F40010049006B010BD18
:101320000054004000100240000C01400000014049
:10133000024881680278114481607047B40000203F
:10134000074810B5016841F010010160032000F06A
:1013500073F8002000F006F800F024F8002010BD1B
:101360000020024070B50D4D04464FF47A71287884
:10137000B1FBF0F00A490968B1FBF0F000F0D6FBD0
:1013800048B9102C07D200222146501E00F034F834
:1013900000206C6070BD012070BD0000B400002012
:1013A000C00000200C4808B5816941F0010181614D
:1013B000816901F001010091C16941F08051C16171
:1013C000C06900F0805000900448416821F0E0615D
:1013D00041F00071416008BD001002400000014072
:1013E00000F01F02012191404009800000F1E0203F
:1013F000C0F8001170470000F0B40E4B1B680C469B
:10140000C3F30223C3F10705042D00D90425191DD8
:10141000072901D2002300E0DB1E012606FA05F1B0
:10142000491E214099409E40761E16403143F0BC33
:1014300001F004B90CED00E0064900F0070208686D
:101440004FF6FF03184040EA0220034A10430860A9
:10145000704700000CED00E00000FA0510B529A46B
:1014600001461DCC86B08DE81D002AA02A4C0068DC
:1014700004900020012923D002293AD010291DD13F
:1014800061682268D20119D5C1F38342C9031DF8EE
:10149000020009D5616804AAC1F34041515C1F4AAA
:1014A000B2FBF1F1484301E01D494843616849023C
:1014B00004D440005FF00301B0FBF1F006B010BDB2
:1014C000226AC2F30121012903D1920701D5C80381
:1014D000F4E7022905D1626A920702D549F6404035
:1014E000ECE70329EAD121688903E7D54FF22440CC
:1014F000E4E700F053F96168C1F38131491C490008
:10150000DAE7000002030405060708090A0B0C0DC0
:101510000E0F1010010200000010024000127A00AD
:1015200000093D002DE9F84305460078354CC00719
:1015300054D0E0690026C00008D4E06940F0805033
:10154000E061E069012600F0805000902E480168BB
:10155000C90512D40168804641F480710160FFF72B
:1015600009FE074605E000BFFFF704FEC01B642824
:1015700023D8D8F80000C005F6D5206A10F44070D2
:1015800021D0A98801F4407181421CD0206A1F49F2
:10159000012220F440700A6000220A602062C00725
:1015A00011D0FFF7E7FD074641F2883808E000BF99
:1015B000FFF7E0FDC11B414502D90320BDE8F883D8
:1015C000206A8007F4D5206A696820F440700843D7
:1015D00020621EB1E06920F08050E0612878800729
:1015E00005D56068A96820F4404008436060287809
:1015F000C00605D56068E96820F480000843606093
:101600000020DBE70010024000700040400442422E
:101610002DE9F047DFF8548105460E46D8F8000062
:1016200000F00700B0420CD2D8F8001021F00701FA
:101630003143C8F80010D8F8000000F00700B042AD
:101640006FD128684A4C810712D5400703D56068DE
:1016500040F4E06060602878000703D5606840F4DB
:10166000605060606068A96820F0F0000843606026
:101670002878C00744D06868012816D0216802285D
:1016800016D0890700294CDA616821F00301014373
:101690006160FFF76FFD6968074641F288300129F4
:1016A0000ED00229814618D026E021688903E9E797
:1016B0008901E7E7FFF75EFDC11B494501D918E045
:1016C00081466068C0F381000128F3D118E000BFB3
:1016D000FFF750FDC11B49450BD86068C0F381007E
:1016E0000228F5D10CE000BFFFF744FDC11B4945BE
:1016F00002D90320BDE8F087606810F00C0FF3D129
:10170000D8F80010404601F00701B1420BD901683A
:1017100021F0070131430160006800F00700B0428A
:1017200001D00120E6E72878400705D56068E96820
:1017300020F4E060084360602878000706D5606800
:10174000296920F4605040EAC100606000F036F87A
:101750006168084AC1F30311515CC840064908603A
:101760000020FFF7FFFD0020C4E70000002002403A
:1017700000100240783D0008C000002004480549E0
:1017800000684968044AC1F30221515CC8407047AF
:10179000C000002000100240883D000804480549B0
:1017A00000684968044AC1F3C221515CC8407047CF
:1017B000C000002000100240883D000812A185B042
:1017C0000FC98DE80F0014A0144A006804905168F6
:1017D000134801F00C03042B10D0082B0ED1C1F3D9
:1017E0008343C9031DF803000AD5516804AAC1F355
:1017F0004041515C0A4A5043B0FBF1F005B07047DC
:1018000008494843FAE700000203040506070809EF
:101810000A0B0C0D0E0F1010010200000010024008
:1018200000127A0000093D002DE9F84F04460078C7
:10183000B94DC00748D06868C0F38100012807D0BF
:101840006868C0F38100022809D16868C00306D522
:101850002868800338D5606800286FD034E060685D
:10186000B0F5803F0BD010B1B0F5A02F11D0286893
:1018700020F480302860286820F4802002E0286866
:1018800040F480302860606888B1FFF773FC06463A
:1018900009E0286840F480202860F0E7FFF76AFC40
:1018A000801B642875D828688003F7D50CE0FFF703
:1018B00061FC064605E000BFFFF75CFC801B642866
:1018C000F0D828688003F7D42078944E80074FF032
:1018D00001094FF000083BD5686810F00C0F07D0E5
:1018E0006868C0F38100022809D16868C00306D483
:1018F0002868800714D5206901281FD110E02069CD
:10190000B0B1C6F80090FFF735FC074605E000BF10
:10191000FFF730FCC01B0228C4D828688007F7D521
:101920002868616920F0F80040EAC10028600FE0F3
:10193000C6F80080FFF71EFC074606E0E9E000BF9E
:10194000FFF718FCC01B022823D828688007F7D4AB
:10195000207800072CD57248A169D9B1C0F8009051
:10196000FFF708FC074604E0FFF704FCC01B022851
:101970000FD8686A8007F7D56A484FF4FA510068B3
:10198000B0FBF1F0009000BF0098411E0091FAD228
:101990000EE080E0C0F80080FFF7ECFB074604E0B3
:1019A000FFF7E8FBC01B022875D8686A8007F7D4E8
:1019B0002078400760D5E8690027C00008D4E869AE
:1019C00040F08050E861E869012700F08050009005
:1019D00055480168C90513D40168834641F48071F4
:1019E0000160FFF7C7FB824606E000BFFFF7C2FBBE
:1019F000A0EB0A0064284ED8DBF80000C005F5D53E
:101A0000E06801280AD008B1052813D0286A20F020
:101A100001002862286A20F0040002E0286A40F0F1
:101A200001002862E06841F2883B98B1FFF7A2FB11
:101A300082460BE0286A40F004002862EEE700BF0F
:101A4000FFF798FBA0EB0A0159455AD8286A80078E
:101A5000F6D50CE0FFF78EFB824605E0FFF78AFB28
:101A6000A0EB0A0159454CD8286A8007F6D41FB16B
:101A7000E86920F08050E861E06988B36968C1F3E3
:101A80008101022945D00228C6F8608004D0FFF702
:101A900071FB044638E034E0FFF76CFB074604E0D6
:101AA000FFF768FBC01B02282BD828688001F7D4F9
:101AB000206AB0F5803F05D16868A16820F4003045
:101AC00008436860D4E908010843696821F4741187
:101AD00008436860C6F86090FFF74CFB044606E0D8
:101AE00015E000BFFFF746FB001B022809D8286855
:101AF0008001F7D50BE000BFFFF73CFB001B02287D
:101B000002D90320BDE8F88F28688001F4D40020B2
:101B1000F8E70120F6E70000001002400000424212
:101B200080044242C00000200070004010B5401EFA
:101B3000B0F1807F01D3012010BD4FF0E02460613F
:101B40000F21601700F07AFD0020A06107202061BE
:101B5000002010BD10B590F83C20012A25D00122AC
:101B600080F83C20CA688C6822F4407222434C689A
:101B700022F4806222430C6822F4006222430C6942
:101B800022F4805222434C6922F4005222438C6991
:101B900022F48042224322F40041026800232143C0
:101BA000516480F83C30002010BD022010BD30B5DB
:101BB00090F83C20012A20D0012280F83C2002230A
:101BC00080F83D3003685C6824F070045C60036852
:101BD0005C680D682C435C6003689C6824F080049A
:101BE0009C6003689C6849680C439C6080F83D20B9
:101BF000002180F83C10084630BD022030BD10B5F1
:101C0000040003D094F83D0010B107E0012010BD9E
:101C1000002084F83C00204600F00CF8022084F8F4
:101C20003D00211D206800F0ADFD012084F83D003D
:101C3000002010BD08B500680649884208D1064852
:101C4000C16941F00201C161C06900F00200009069
:101C500008BD0000000400400010024070B50446BA
:101C600090F83C00012817D0012584F83C50022050
:101C700084F83D002068826822F0770222F47F42D7
:101C800082600868502837D00DDC202859D005DC48
:101C900088B3102841D151E0022070BD302853D0C4
:101CA00040283AD13FE060282ED070280BD0B0F504
:101CB000805F03D0B0F5005F2FD110E0206881680D
:101CC00021F0070115E0CB68D1E90121206800F07F
:101CD0009AFD2168886840F0770088601DE0CB6835
:101CE000D1E90121206800F08EFD2068816841F46F
:101CF0008041816011E01EE0CA684968206800F0F8
:101D000037FE5021206806E0CA684968206800F064
:101D100040FE6021206800F080FD84F83D500020E6
:101D200084F83C0070BDCA684968206800F020FE55
:101D300040212068EFE700212068ECE710212068AF
:101D4000E9E720212068E6E730212068E3E72DE974
:101D5000F0410D46040003D094F83D0018B108E0AE
:101D60000120BDE8F081002084F83C00204600F00E
:101D700039F8022084F83D002068816821F00701CD
:101D80008160211D206800F0FDFC22689068916947
:101D9000166A2B68AF69034340F20330814341EA7E
:101DA0000721A868EF6908434FF6FC418843E968BA
:101DB00040EA0720014328692F6A000140EA073002
:101DC000084369686D6926F0AA0646EA05152943A5
:101DD00093602268906120680162012084F83D00D0
:101DE0000020BEE700B585B000210091019102916D
:101DF000039101681A48B1F1804F1BD0194A9142F2
:101E000016D1C16941F00401C161C16901F0040149
:101E10000491816941F0080181618069694600F09F
:101E200008000490C02000900F4800BFFFF7B6F8EC
:101E300005B000BDC16941F00101C161C16901F096
:101E400001010491816941F0040181618069694661
:101E500000F004000490032000900448E6E700002E
:101E60000010024000080040000C01400008014042
:101E700010B50446006891B1042904D00122002164
:101E800000F0B6FC206801225FF0040100F0B0FC15
:101E90002068016841F001010160002010BD0122AD
:101EA0000021F3E710B586B0002100910191029165
:101EB00003911C4B02681C4902241C489A420DD114
:101EC0008A6942F004028A618969039401F004017D
:101ED00004910115CDE9001469461FE0144B9A42A4
:101EE0001ED18A6942F004028A618A6902F0040202
:101EF00004928A6942F008028A618969039401F0B8
:101F0000080104918021CDE900146946FFF746F8E5
:101F10000120CDE90004694606480394FFF73EF826
:101F200006B010BD002C0140001002400008014026
:101F300000040040000C014070B5044690F83C00DD
:101F40000D4601280DD0012684F83C60022084F85B
:101F50003D0042B1042A18D0082A2AD00C2A4DD1BB
:101F600039E0022070BD206800F060FC20688169C3
:101F700041F0080181612068816921F004018161DB
:101F8000206881692A69114311E0206800F076FC1D
:101F90002068816941F4006181612068816921F4D0
:101FA00080618161206881692A6941EA0221816139
:101FB00024E0206800F08EFC2068C16941F008012F
:101FC000C1612068C16921F00401C1612068C16953
:101FD0002A69114311E0206800F0A8FC2068C1695B
:101FE00041F40061C1612068C16921F48061C1616F
:101FF0002068C1692A6941EA0221C16184F83D6013
:10200000002084F83C0070BD10B5040003D094F8A3
:102010003D0010B107E0012010BD002084F83C0015
:10202000204600F00DF8022084F83D00211D2068B4
:1020300000F0A8FB012084F83D00002010BD000046
:1020400008B500680649884208D10648816941F40C
:1020500000618161806900F40060009008BD0000AB
:10206000002C01400010024010B504460068012217
:1020700000F0BEFB07492068884203D1416C41F45F
:10208000004141642068016841F0010101600020C5
:1020900010BD0000002C01407047000070B50268C0
:1020A00004461068D168536910F00F0F50D003F048
:1020B000010501F4907635435DD0C20705D0CA050D
:1020C00003D5E26B42F00102E263420705D5DA076D
:1020D00003D0E26B42F00202E263820705D5DA0721
:1020E00003D0E26B42F00402E263020705D5DA078F
:1020F00003D0E26B42F00802E263E26B002A33D0C5
:10210000800604D5880602D5204600F06AFC2068C7
:102110004069E16BC0F38010090700D428B3204662
:1021200000F051FC2068416949061AD5416921F047
:1021300040014161606BA0B11B494163606BFEF7D8
:10214000CFFE002810D0606B416BBDE8704008479F
:10215000830610D58B060ED52046BDE8704000F0F2
:1021600040BC2046FFF798FF70BD2046FFF794FF64
:102170000020E06370BD030606D50B0604D520469B
:10218000BDE8704000F030BD4006F3D54806F1D5FB
:10219000D168204621F04001D160202184F8391017
:1021A00000F0D4F870BD0000B729000870B5040035
:1021B00004D094F83900002510B106E0012070BD6C
:1021C00084F83850204600F023F8242084F83900A1
:1021D0002068C16821F40051C160204600F04CFC29
:1021E0002068016921F4904101612068416921F072
:1021F0002A0141612068C16841F40051C160E56372
:10220000202084F8390084F83A00002070BD0000D6
:1022100030B585B0002400940194029403940068C2
:10222000184988422BD11848C16941F40031C16175
:10223000C16901F400310491816941F004018161B7
:102240008069124D00F004000490042000900220E8
:1022500001900320039069462846FEF79FFE082060
:10226000CDE90004694628460294FEF797FE002255
:1022700011462620FFF7C0F82620FFF7B1F805B079
:1022800030BD000000440040001002400008014042
:1022900070472DE9F843044690F839001F4616466A
:1022A0000D46202850D1A5B19EB194F838000128E0
:1022B0004AD0012084F838004FF00008C4F83C8070
:1022C000212084F83900FEF755FFA6848146E68474
:1022D00026E00120BDE8F883E08C401EE084A06881
:1022E0004B46B0F5805F4FF000024FF08001204672
:1022F000009703D000F0A9FCE8B90DE000F0A5FCC0
:10230000C8B928882168C0F308004860206908B16E
:102310006D1C05E0AD1C03E0216815F8010B486059
:10232000E08C0028D8D14B4600224021204600975F
:1023300000F08BFC08B10320CCE7202084F83900A2
:1023400084F838800020C5E70220C3E77047FEE725
:102350003EB500210E4800910191029181600B4A27
:10236000C1600260416101244FF460220461C261D6
:102370004160FEF703FC0920CDE90004042002902F
:1023800069460348FEF778FB3EBD0000002401408B
:10239000C80000202DE9F04385B0002431480094A6
:1023A000019402940394816941F010018161816973
:1023B00001F010010491816941F02001816181697E
:1023C00001F020010491816941F00401816181697A
:1023D00001F004010491816941F008018161806983
:1023E000214F00F008004FF4604504900022294678
:1023F0003846FEF7BAFEDFF87480002270214046AE
:10240000FEF7B3FEDFF86890002230214846FEF761
:10241000ACFE0095022601250396CDE901546946DC
:102420003846FEF7BBFD7020CDE90005CDE9024638
:1024300069464046FEF7B2FD4FF44070CDE9000416
:10244000694640460294FEF7A9FD3020CDE900051B
:10245000CDE9024669464846FEF7A0FD05B0BDE855
:10246000F08300000010024000100140000801400D
:10247000000C014010B590B000240E941C21684659
:102480000F94FDF766FE1C2107A8FDF762FE1A48AF
:1024900018490160AF21C0E90114FE21C0E903140D
:1024A00044618461FFF7B0FD0E940EA912480F94A9
:1024B000FFF77DFB6020CDE90004029403940494AF
:1024C0000594082269460C480694FFF735FD0794E9
:1024D000089409944FF400500A94CDE90B4007A9E1
:1024E00005480D94FFF736FB0348FFF7DBFC10B0FF
:1024F00010BD0000002C01404C01002010B58CB034
:1025000024216846FDF725FE0024124809944FF067
:1025100080410A94C0E900144FF6FF71C0E90241FE
:10252000046184610320CDE900040120CDE90204A7
:102530000494CDE905400794694606480894FFF7DE
:1025400006FC099409A903480A94FFF730FB0CB074
:1025500010BD00008C01002010B58EB0002407943F
:10256000089409940A940B941C2168460C94FDF776
:10257000F0FD19481749C0E9001440F2E731C0E9FD
:10258000024104618461FFF73AFB4FF480500790E9
:1025900007A91148FFF762FB0F48FFF735FD0B94C1
:1025A0000BA90D480C94FFF702FB6020CDE9000455
:1025B00002940422694608480494FFF7BDFC0822EF
:1025C00069460548FFF7B8FC0348FFF76BFC0EB0FF
:1025D00010BD000000040040CC01002010B58CB0FC
:1025E00024216846FDF7B5FD0024124809941049DE
:1025F0000A94C0E900144FF6FF71C0E9024104617A
:1026000084610320CDE900040120CDE90204049493
:10261000CDE905400794694606480894FFF797FB03
:10262000099409A903480A94FFF7C1FA0CB010BD38
:10263000000800400C020020FEE770470907090E61
:10264000002806DA00F00F0000F1E02080F8141DE9
:10265000704700F1E02080F8001470477047704721
:1026600070B5FEF765FE1A4C1A4E4FF400712068E3
:10267000401C20603046FEF76FFD174D20B9012247
:1026800091032846FEF771FD4FF480713046FEF746
:1026900063FD012804D1C10301222846FEF765FD30
:1026A0002068B0F5FA6F01D301F0AEFA20684FF45C
:1026B0007A71B0FBF1F201FB1200002806D1284626
:1026C000BDE870404FF40051FEF74BBD70BD0000F7
:1026D000B0000020000801400010014030B593B068
:1026E00028216846FDF735FD14210AA8FDF731FDC4
:1026F000002401200F9410941194010412948DE889
:10270000130004904FF4A010CDE90810022507959E
:102710006846FFF789F80F20CDE90A056802CDE980
:102720000C4002210AA80E94FEF772FF6803119074
:102730000F950FA8FEF7F6FE13B030BD0D480168E7
:1027400041F00101016041680B4A1140416001689C
:102750000A4A11400160016821F48021016041684A
:1027600021F4FE0141604FF41F0181600449C00360
:1027700008607047001002400000FFF8FFFFF6FEFF
:1027800008ED00E0F0B50268164B174C174D4FF0FE
:102790008047984205D0B84203D0A04201D0A84259
:1027A00003D122F070064A683243984205D0B842FD
:1027B00003D0A04201D0A84203D122F44074CA68D9
:1027C000224322F080044A69224302608A68C2627E
:1027D0000A688262984201D109690163012141615D
:1027E000F0BD0000002C0140000400400008004043
:1027F00010B50123046A8B409C430462036A8A403B
:102800001343036210BD10B5846842EA032224F426
:102810007F440A432243826010BD826822F0700226
:102820000A4342F0070181607047000030B5026A38
:1028300022F001020262026A4368846924F073058F
:102840000C682C4322F002058A682A430A4DA842EC
:102850000BD122F00805CA6823F440732A434D695E
:1028600022F004021D438B692B4343608461496855
:102870004163026230BD0000002C014030B5026AA5
:1028800022F010020262026A436884690D6824F42F
:10289000E64444EA05248D6822F0200242EA05124B
:1028A0000B4DA8420ED1CD6822F0800242EA0512FB
:1028B0004D6923F4406343EA85038D6922F04002A9
:1028C00043EA85034360846149688163026230BDE5
:1028D000002C014030B5026A22F480720262036A61
:1028E0004268C46923F4007324F073050C682C4318
:1028F0008D6843EA05230C4DA8420ED1CD6823F420
:10290000006343EA05234D6922F4405242EA05126E
:102910008D6923F4806342EA05124260C46149680C
:10292000C163036230BD0000002C014030B5026A73
:1029300022F480520262046A4268C3690D6823F47B
:10294000E64343EA05238D6824F4005444EA053441
:10295000064DA84204D14D6922F4804242EA851214
:102960004260C36149680164046230BD002C0140CB
:1029700010B5036A046A24F001040462846924F037
:10298000F00444EA021423F00A020A43846102625A
:1029900010BD10B5036A23F0100303628369046A53
:1029A00023F4704343EA023224F0A00343EA011106
:1029B0008261016210BD10B5406A0021C185C184E9
:1029C000FFF76AFB10BD0168CA6822F49072CA6002
:1029D00001684A6922F001024A61202180F83A1018
:1029E000704710B590F83A10222901D0022010BD8E
:1029F0008168B1F5805F11D00169002901681FD09D
:102A0000496801F07F03816A4A1C82620B70C18DA4
:102A1000491E0904090CC18518D02BE00269816A9E
:102A2000002A0268526805D0D2B20A80816A491C25
:102A30008162ECE7C2F308020A80816A891CF7E729
:102A40004A68816A4B1C83620A70E0E70168CA68C1
:102A500022F02002CA600168CA6822F48072CA604B
:102A600001684A6922F001024A61202180F83A1087
:102A7000FFF70EFC002010BD2DE9F0410446006870
:102A80000169E26821F44051114301612169A068A4
:102A90000843616908432168CA6841F20C639A439C
:102AA0000243CA6020684169A26921F44071114360
:102AB00041614C4920686425322688423CD1FEF7AA
:102AC0006DFE00EBC00101EB001061688900B0FBF6
:102AD000F1F7FEF763FE00EBC00101EB0010616847
:102AE000B0468900B0FBF1F0B0FBF5F06FF01801D3
:102AF000484307EB800106EB0110B0FBF5F000F056
:102B0000F006FEF74BFE00EBC00101EB0010616820
:102B10008900B0FBF1F0B0FBF5F006EB0016FEF714
:102B20003DFE00EBC00101EB001061688900B0FBC5
:102B3000F1F7FEF733FE3BE0FEF720FE00EBC001AD
:102B400001EB001061688900B0FBF1F7FEF716FE9B
:102B500000EBC00101EB00106168B0468900B0FBDA
:102B6000F1F0B0FBF5F06FF01801484307EB80017E
:102B700006EB0110B0FBF5F000F0F006FEF7FEFDED
:102B800000EBC00101EB001061688900B0FBF1F0BF
:102B9000B0FBF5F006EB0016FEF7F0FD00EBC00110
:102BA00001EB001061688900B0FBF1F7FEF7E6FD6C
:102BB00000EBC00101EB001061688900B0FBF1F08F
:102BC000B0FBF5F06FF01801484307EB800108EB0C
:102BD0000110B0FBF5F0216800F00F003044886070
:102BE000BDE8F0810038014090F83910212901D06A
:102BF000022070478168B1F5805F016A0BD04A1CE2
:102C00000262026809785160C18C491E0904090CEE
:102C1000C1840ED017E009880268C1F30801516031
:102C200001690029016A02D0491C0162ECE7891C94
:102C3000FBE70168CA6822F08002CA600068C168C8
:102C400041F04001C160002070472DE9F0419846F5
:102C500017460E460446069D1DE0681C1BD02DB18C
:102C6000FEF788FAA0EB0800A84214D92068C168D2
:102C700021F4D071C1602068416921F001014161F6
:102C8000202084F8390084F83A00002084F83800C5
:102C90000320BDE8F0812068006836EA000004D017
:102CA0000020B842D9D00020F3E70120F9E7000066
:102CB0000148FFF7F3B900004C020020FEE70000D6
:102CC0000FB4054B10B503A9044A029800F0DAF8D6
:102CD00010BC5DF814FB0000BD360008C4000020E5
:102CE00002E008C8121F08C1002AFAD170477047D5
:102CF000002001E001C1121F002AFBD17047000033
:102D00002DE9FF5F82B00021DDE90430020DDDF81E
:102D100040B0034318D044F61050A2F2FF324243B1
:102D20001514119801281FD0A5EB0B00401C5FEA79
:102D3000000A4FF000064E4FDFF83891B04650467B
:102D400015D5CAF1000413E0119801244AA3012803
:102D500001D16FEA0B010298119AC0E90031C0E974
:102D6000024206B0BDE8F09FCBF10000DFE7044669
:102D70000021404A491842EB0450CDE9001012E00E
:102D8000E00707D032463B4640464946FDF7C0FAC9
:102D90008046894632463B4610461946FDF7B8FA4A
:102DA00006460F466410002CEAD1DDE90401DDE996
:102DB0000023BAF1000F06DAFDF7AAFA42464B46A5
:102DC000FDF7A6FA05E0FDF715FB42464B46FDF779
:102DD00011FB04460E460022284BFDF7A1FD03D847
:102DE0004FF0FF30014607E00022254B20463146D8
:102DF000FDF7D7FCFDF77CFD102409E0002C0ADB71
:102E00000A220023FDF708FC039B30321A55641E8A
:102E100050EA0102F2D1641C039AC4F11103144474
:102E2000119A012A03D0012208430DD10AE0084378
:102E300004D000204FF0110B119072E7A3EB0B05AB
:102E40006D1E0DE05B4504DD4FF0000205F101054C
:102E500004E003DA4FF00002A5F10105002AECD0EE
:102E600002981199C0E90231C0E9004579E70000F4
:102E7000000014400000F03F300000000000F0436C
:102E80000000E03F2DE9FF4F95B09B46894606467E
:102E900000250FE2252877D100242746F84A012192
:102EA000059400E0044316F8013F203B01FA03F0CB
:102EB0001042F7D130782A2811D06FF02F033078E4
:102EC000A0F13002092A16D8059A44F0020402EB58
:102ED000820203EB42021044761C0590EFE759F89A
:102EE000042B0592002A03DA504244F40054059062
:102EF00044F00204761C30782E2816D116F8010F03
:102F000044F004042A280DD06FF02F023078A0F18D
:102F10003003092B09D807EB870302EB4303C718DB
:102F2000761CF3E759F8047B761C30786C280FD0B8
:102F300006DC4C2817D068280DD06A2814D104E08C
:102F4000742810D07A280FD10DE044F400140AE060
:102F500044F4801401E044F440147278824202D1B7
:102F600004F58014761C761C307866280BD013DCB0
:102F7000582877D009DC002875D04528F6D0462897
:102F8000F4D047281AD19DE118E0632835D0642891
:102F900079D0652812D195E1702873D008DC6728B4
:102FA000F1D069286FD06E280DD06F2806D1B5E01A
:102FB00073282CD0752875D0782874D05A46179964
:102FC00090476D1C75E1C4F30250022809D0032814
:102FD0000DD0D9F8001004280DD00D6009F10409B6
:102FE00067E1D9F80010EA17C1E90052F6E7D9F80D
:102FF00000100D80F2E70D70F0E719F8041B8DF852
:10300000001000208DF80100EA46012003E059F885
:1030100004AB4FF0FF3061074FF0000102D40DE028
:1030200008F101018846B9420FDA8045F8DB1AF849
:1030300008100029F4D108E008F101018846814216
:10304000FADB1AF808100029F6D105985B46A0EBC8
:10305000080721463846179A00F094FA284400EBF6
:10306000080507E04DE029E10DE01AF8010B5A468A
:1030700017999047B8F10108F7D25B4621463846C8
:10308000179A13E142E00A220092C4F302524FF071
:10309000000A022A08D059F804CB032A4FEAEC713F
:1030A0000AD00DE029E02AE009F1070121F007022A
:1030B000F2E802C1914609E00FFA8CFC4FEAEC718C
:1030C000042A03D14FFA8CFC4FEAEC71002907DA8D
:1030D0000A460021DCF1000C61EB02012D2202E026
:1030E000220504D52B228DF80420012203E0E207FB
:1030F00001D02022F7E7904659E00A2102E0102291
:103100000DE010214FF0000A00910BE010224FF06B
:10311000000A44F004040827009203E008224FF05C
:10312000000A0092C4F30252022A05D059F804CBD7
:103130000021032A08D009E009F1070121F0070264
:10314000F2E802C1914605E01FFA8CFC042A01D185
:103150000CF0FF0C4FF00008220728D5702806D08D
:10316000009B83F0100353EA0A0305D00EE04022CF
:103170008DF80420012208E05CEA010206D030222A
:103180008DF804208DF8050002229046009B83F004
:10319000080353EA0A030AD15CEA010201D162077B
:1031A00005D530228DF804204FF001087F1E5828E5
:1031B00004D034A003900EA802900DE036A0F9E7E9
:1031C00053466046009AFDF727FA84460398825CCE
:1031D0000298401E029002705CEA0100F0D1029851
:1031E00006A9081A00F1200A600702D524F48034E9
:1031F00000E00127574502DDA7EB0A0000E00020B0
:1032000000EB0A01009005984144401A0590E00344
:1032100006D45B462146179A059800F0B3F9054499
:10322000002706E001A85A46C05D179990476D1C1B
:103230007F1C4745F6DBE0030CD55B462146179A19
:10324000059800F09FF9054404E030205A4617998C
:1032500090476D1C0099481E00900029F5DC08E09D
:10326000029802995A460078491C02911799904792
:103270006D1CBAF10001AAF1010AF1DC65E1000060
:10328000092801003031323334353637383961623C
:103290006364656600000000303132333435363700
:1032A00038394142434445460000000000F058F9D7
:1032B0000544761C307800287FF4ECAD19B0284620
:1032C000BDE8F08F620700D4062709F1070222F05B
:1032D000070CFCE80223E14603F000485FEA080C13
:1032E00002D00FF2702C0DE05FEA045C02D50FF201
:1032F000682C07E05FEAC47C02D00FF2602C01E08A
:10330000AFF2700C4FF0FF3823F00043CDF850C0FF
:1033100065280CD006DC452809D046281DD0472852
:103320003DD13DE0662818D067287ED138E00021E5
:10333000112F01DB112000E0781CCDE9000106A966
:103340000EA8FFF7DDFCDDE90F010E9A03910021C5
:10335000009207F1010A04914DE04FF00040009700
:10336000CDE9011006A90EA8FFF7CAFCDDE90F029E
:1033700003920E9B11990022DDF80CA00093049299
:1033800011B9791C00EB010AB7EB0A0004D4C0F1B3
:10339000FF3007F1010A0490AAEB0700019044E016
:1033A000012F00DA01270021112F01DD112000E09B
:1033B0003846CDE9000106A90EA8FFF7A1FCDDE91A
:1033C0000F010E9A0391002104910092BA46210741
:1033D0000CD40399514500DA8A46BAF1010F05DD94
:1033E000009AAAF10101515C302908D0B84202DAF2
:1033F00010F1040F06DA0121CDE9011015E0AAF160
:103400000101E9E7002805DC049901440491AAEBD5
:10341000000102E0411C514500DD8A460499401A32
:10342000401C01904FF000400290200704D4019806
:10343000504501DBCDF8048000208DF84F00029844
:103440000DF14F07B0F1004F25D02B200E900298C0
:103450004FF0020800280CDA404202902D200E9016
:1034600007E00A210298FDF7C1F83031029007F811
:10347000011DB8F10001A8F10108F2DC0298002852
:10348000EFD1791E0E980870307800F0200040F0DF
:10349000450007F8020D12A8C01B00F10708149898
:1034A000007800B1012000EB0A01019801EBE07106
:1034B00005984144401A401E0590E00306D45B463F
:1034C0002146179A059800F05DF805441498007895
:1034D00018B15A46179990476D1CE00324D55B46F6
:1034E0002146179A059800F04DF805441CE0049811
:1034F000002807DBDDE90301884203DD0098405C1A
:10350000179901E0179930205A469047049805F121
:103510000105401C04900198401E019004D12E200A
:103520005A46179990476D1CBAF10001AAF1010A99
:10353000DDDC05E017F8010B5A46179990476D1C22
:10354000B8F10001A8F10108F4DC5B462146179AA6
:103550000598ABE62D0000002B00000020000000C5
:103560002DE9F041044600251E461746880404D480
:1035700005E039462020B0476D1C641EF9D5284669
:10358000BDE8F0812DE9F041044600251E46904635
:10359000C80301D5302700E02027880404D505E0C2
:1035A00041463846B0476D1C641EF9D52846BDE833
:1035B000F081000010B509210D4800F0B5FAFCF7C4
:1035C0009FFF6FF00B01FCF797FEFCF7CCFF4FF06D
:1035D0006632084BFCF79CFE0022074BFCF798FE76
:1035E0000022064BFCF706FFBDE81040FCF7CEBFFB
:1035F000C800002066660A4000F8964000607D40E2
:10360000B0F57A7F01D340F2E73001490860704796
:103610003C2C01402DE9F041274CD4E91C125018F4
:10362000551AC4E90405FCF76BFF2168FCF7F1FDAE
:10363000A169FCF799FD0746A0612846FCF760FFE9
:103640006168FCF7E6FDE169FCF78EFDE061064686
:103650003846216AFCF7DAFD616BFCF7DDFD0546B3
:103660003946206BFCF7D8FD2946FCF77DFDFCF7B9
:1036700061FFA06205463046616AFCF7C7FDE16B59
:10368000FCF7CAFD80463146A06BFCF7C5FD4146FC
:10369000FCF76AFDFCF74EFF291AE0622844C4E9F2
:1036A0001610C4E90876084600F04EFAE06DBDE851
:1036B000F04100F079BA00000000002013B54FF689
:1036C000FF73012269460248FEF7E3FD00981CBD26
:1036D0004C020020F0B52348046823484FF0804195
:1036E00084664B6AC366866F4FF4704CA11B0167FA
:1036F000C56FCCF1000E5A1B4FF6FF77426761454C
:1037000001DDC91B03E0714502DAB91B21440167E1
:10371000624504DDA2F57F42FF3A426704E072454C
:1037200002DA791B19444167D0E91C62B11801EB38
:10373000D1714D100C490566C0E91E4380310B68FC
:1037400033440B604C6814444C60191901EBD1717F
:1037500049104166016D491B0165416D891A41653A
:10376000F0BD000024080040000000201CB5FDF75B
:10377000E7FDFEF7B3FFFEF70DFEFEF7BFFE7A484A
:103780007849002401604FF41651C0E901140C215E
:10379000C460C0E904418461C461FEF707FDFEF71F
:1037A000DBFEFEF71BFF724870494FF48045016055
:1037B0007049C0E90114C0E9034544618461C461F2
:1037C0000462FDF7DDFCFEF7C3FDFEF753FE00F0DB
:1037D00025F900F095F9684DE868FCF7C4FE002271
:1037E000664BFCF707FE0122FCF773FE644A654B4B
:1037F000FCF78EFD0F460646FCF7C8FE28613046F2
:1038000039460022604BFCF783FDDFF88081DFF84A
:10381000809142464B46FCF7EDFD00225D4BFCF7E4
:10382000E9FDDFF874A100225346FCF771FDDFF8D3
:103830006CB15B4B5A46FCF76BFDFCF7A7FE686169
:10384000FFF7B8FEFCF78FFE064656480F460068A5
:10385000FCF75FFE42464B46FCF75AFD00224D4BFB
:10386000FCF756FD00225346FCF7C4FD5A464C4B6C
:10387000FCF7C0FD0022474BFCF7BCFD02460B469F
:1038800049A0CDE90067FFF71BFA4FF4FA70FDF786
:1038900073FBFFF78FFE524988420DDA514E012229
:1038A000D1033046FDF761FC00224FF480413046E1
:1038B000FDF75BFC96200CE04A4E00224FF40041DD
:1038C0003046FDF752FC012291033046FDF74DFCD6
:1038D0000020FFF795FE686888B344484249DFF846
:1038E0001091DFF810A1DFF810B1444E444F80462C
:1038F000C0F80010D9F80000FCF71CFE01B200224D
:10390000D8F8000000F0B8F8FCF714FE2860FCF7C7
:10391000F7FDDAF80010FCF755FE04D239480168CB
:103920003948016001E03848046031683868091A94
:10393000DBF800008142DDDB306838606C60A8682D
:1039400000283FF448AF324A3048106031480168DF
:10395000314800E001601368002BFBDC0460AC60C0
:1039600039E70000004400404C02002000540040B1
:10397000F8000020A086010098000020008076401A
:103980007A008BFCFA21094000003F4076A8A6246B
:10399000EB58584000408F400060A040ABAAAAAA54
:1039A000AA2A564060000020456E636F646572204D
:1039B00073706565643A20252E3266206D2F732062
:1039C0002D2D2D204261747465727920766F6C7490
:1039D0006167653A20252E3266200A0D000000003E
:1039E0000000D04000100140C03D05005000002004
:1039F000000000204400002090000020640000200F
:103A0000940000208800002008000020930D03008F
:103A1000540000208C0000200C00002010B518215C
:103A20001148FEF725FA18211048FEF721FA104C2C
:103A3000012210212046FDF798FB0122402120465B
:103A4000FDF793FB002220212046FDF78EFB094C59
:103A5000002220212046FDF788FB20460122BDE8F8
:103A600010401021FDF781BB8C0100200C020020CA
:103A700000080140000C014010B5002901DA49425C
:103A800009B2002A01DA524212B2002801DC4FF0DA
:103A9000010001FB01F102FB12114FF47A7201FBEC
:103AA00002F191FBF0F04FEAE07100EB51704FEA48
:103AB000E000FCF72EFD0C4A0C4BFCF729FC002221
:103AC0000B4BFCF725FC00220A4BFCF793FC0A4A3F
:103AD0000A4BFCF78FFCFCF759FD10F1FF4F01D3A7
:103AE00080F0004010BD000076A8A624EB58584096
:103AF00000408F400060A040ABAAAAAAAA2A564064
:103B000010B508210648FEF7AFFA04210548FEF774
:103B1000ABFABDE8104008210248FEF7A5BA000044
:103B20004C010020CC01002070B50C460546FDF785
:103B300077F921462846FDF7DBF80028F9D1284619
:103B4000FDF718F880B270BD70B5144D144E0446E0
:103B5000B0F57A7F02DB40F2E73406E014F57A7FB5
:103B600001DC104C0DE0002C0BDB0022202128464C
:103B7000FDF7FBFA012210212846FDF7F6FA346022
:103B800070BD012220212846FDF7EFFA0022102106
:103B90002846FDF7EAFA6042306070BD000C014033
:103BA0003C04004019FCFFFF70B5144D144E044650
:103BB000B0F57A7F02DB40F2E73406E014F57A7F55
:103BC00001DC104C0DE0002C0BDB012240212846CB
:103BD000FDF7CBFA002220212846FDF7C6FA346013
:103BE00070BD002240212846FDF7BFFA01222021A6
:103BF0002846FDF7BAFA6042306070BD0008014007
:103C00003804004019FCFFFF10B5FFF763FD00F01A
:103C100005F8BDE81040FFF7FDBC00002DE9F05F9E
:103C2000544C4D4D4D4E4E4FDFF83881DFF83891F2
:103C3000DFF838A1DFF838B1A068FCF761FC216833
:103C4000FCF7CAFC27D20121206CFCF755FBFCF7DE
:103C50008AFC2A463346FCF7CDFB00223B46FCF7A4
:103C6000C9FB00224346FCF753FB4A465346FCF788
:103C70004FFBFCF78BFC5946FCF700FB2168FCF777
:103C800073FA05462060A068FCF73AFC2946FCF769
:103C900099FC32D22DE0A068FCF732FC2168FCF7D9
:103CA00091FC2AD20121606CFCF726FBFCF75BFC3F
:103CB0002A463346FCF79EFB00223B46FCF79AFB64
:103CC00000224346FCF724FB4A465346FCF720FB00
:103CD000FCF75CFC5946FCF7D1FA2168FCF799FA2D
:103CE00005462060A068FCF70BFC2946FCF774FC35
:103CF00003D2A068FCF704FC2060E068FCF700FC3D
:103D00006168FCF769FC12D2A16C6068FCF72CFAC0
:103D100005466060E068FCF7F3FB2946FCF752FCBF
:103D200003D2E068FCF7ECFB6060BDE8F09FE06860
:103D3000FCF7E6FB6168FCF745FCF6D2E16C6068D5
:103D4000FCF764FA05466060E068FCF7D9FB294699
:103D5000FCF742FCE5D3E8E776A8A624EB585840E8
:103D600000408F400060A040ABAAAAAAAA2A5640F1
:103D700000007A4400000020000000000000000065
:103D80000102030406070809000000000102030401
:103D9000B03D000800000020C8000000E02C000832
:103DA000783E0008C8000020C8050000F02C00087C
:103DB0000000000000000000000000000000000003
:103DC00000000000000000000000000000000000F3
:103DD00000000000000000000000000000000000E3
:103DE0000000A04000008040000000400000404172
:103DF0000000C8430000C8430000803F0000803F2F
:103E000000000000000000000000000000000000B2
:103E100000000000000000000000000000000000A2
:103E20000000000000000000000000000000000092
:103E300000000000000000007D0100007301000090
:103E4000C03D050000000000000000000000000070
:103E50000000000000000000000000000000000062
:103E60000000000001000000100000000000000041
:083E700000A24A04000000005A
:04000005080000ED02
:00000001FF
